:1004520050617373776F72643A004F4B200065727C
:02046200720026
:0A0473000125000223000001220011
:10011C0012043E7BFF7A0479527D017F011203B0F9
:10012C001200038F25E52560F7D3940A5028052289
:10013C00E52294045020AE23AF247C007D0A1201EA
:10014C00DF8E238F24E52575F00A84E5F02524F550
:10015C0024E43523F523E525640B702DE524B4D276
:10016C0014E523B4040F7BFF7A04795C7D0D7F01C9
:10017C001203B080147BFF7A0479607D0D7F01122D
:10018C0003B0E4F523F524F522E525B40C07E4F5DA
:10019C0023F524F522750C04AB24AA237D017F02E0
:0601AC001203F102012C18
:10040E00D3EF9400EE94004010007D027CC7DCFE1A
:09041E00DDFCEF1F70EA1E80E70F
:0104270022B2
:06046400C2A58F80D2A7A3
:08046A007F027EEFDEFEDFFCE5
:010472002267
:0A047E00C2A6120464C2A702046AB9
:1003D300CFCDCFCECCCE1201F17C007D0A1201F13C
:0403E300ED2430FFD6
:0A03E700D2A6120464C2A702046A41
:10042800AE07BE0104ED148006BE0209ED243F4468
:0604380080FF12047E2289
:10043E007F3812047E7F0C12047E7F0612047E7FAC
:04044E000102047E25
:0A048800AC03120428AF040203E7DE
:0603B0008B088A09890A8E
:1003B600120428E4FDAB08AA09A90A8D82758300F8
:0C03C6001201B2FF60061203E70D80E98F
:0103D2002208
:0C037D007F0AEA24FFFDE434FFFC7E0050
:080389008E0D8F0E8C0F8D10FC
:100391007F017E00E4FBEBC39510E50F6480F874E8
:0E03A1008098500AAC0DAD0E1201DF0B80E803
:0103AF00222B
:0403F1008A0A8B0BDE
:1003F500120428AA0CEAD39400400D12037DAC0A1E
:08040500AD0B1203D31A80EDC8
:01040D0022CC
:1002D200120428C3EA64809480400B7F2B1203E748
:1002E2008A168B17800E7F2D1203E7C3E49BF51746
:1002F200E49AF516AA15EAD39400400D12037DACD8
:0903020016AD171203D31A80EDA9
:01030B0022CF
:04030C008A1A8B1BA3
:10031000120428AA1CEAD3940040297F1012037FFC
:10032000AC1AAD1BCFCDCFCECCCE1201F1EF540F16
:10033000FEC3940AEE5004243080022437FF1203D7
:04034000E71A80D167
:010344002296
:040345008A1F8B2060
:10034900120428AA21EAD394004028EA24FFFDE4F4
:1003590034FFFC7F027E00120389AC1FAD20CFCD94
:10036900CFCECCCE1201F1EF54012430FF1203E7B6
:030379001A80D215
:01037C00225E
:10000300E4F5087590FFC29320970C7F14FE120449
:100013000E3097FD75080120960D7F147E001204A3
:100023000E3096FD75080520950D7F147E00120491
:100033000E3095FD75080920940D7F147E0012047F
:100043000E3094FD75080D7590FFC29220970D7FB9
:10005300147E0012040E3097FD75080220960D7F62
:10006300147E0012040E3096FD75080620950D7F50
:10007300147E0012040E3095FD75080A20940D7F3E
:10008300147E0012040E3094FD75080E7590FFC2A5
:100093009120970D7F147E0012040E3097FD750892
:1000A3000320960D7F147E0012040E3096FD750812
:1000B3000720950D7F147E0012040E3095FD750800
:1000C3000B20940D7F147E0012040E3094FD7508EE
:1000D3000F7590FFC29020970D7F147E0012040EBF
:1000E3003097FD75080420960D7F147E0012040ED0
:1000F3003096FD75080820950D7F147E0012040EBE
:100103003095FD75080C20940D7F147E0012040EAB
:080113003094FD750810AF08DF
:01011B0022C1
:03000000020246B3
:0C024600787FE4F6D8FD75812502028D5A
:1001B200BB010CE58229F582E5833AF583E0225002
:1001C20006E92582F8E622BBFE06E92582F8E2224C
:0D01D200E58229F582E5833AF583E4932266
:1001DF00EF8DF0A4A8F0CF8CF0A428CE8DF0A42E34
:0201EF00FE22EE
:1001F100BC000BBE0029EF8DF084FFADF022E4CCF2
:10020100F875F008EF2FFFEE33FEEC33FCEE9DECBA
:10021100984005FCEE9DFE0FD5F0E9E4CEFD22ED00
:10022100F8F5F0EE8420D21CFEADF075F008EF2F4A
:10023100FFED33FD4007985006D5F0F222C398FD3B
:050241000FD5F0EA22D8
:1002520002011CE493A3F8E493A34003F68001F2A5
:1002620008DFF48029E493A3F85407240CC8C333AD
:10027200C4540F4420C8834004F456800146F6DF7C
:10028200E4800B0102040810204080900473E47E95
:10029200019360BCA3FF543F30E509541FFEE49371
:1002A200A360010ECF54C025E060A840B8E493A338
:1002B200FAE493A3F8E493A3C8C582C8CAC583CA63
:1002C200F0A3C8C582C8CAC583CADFE9DEE780BE1B
:01047D00007E
:00000001FF
