:1008C30020B3037F042220B2037F052220B1037FDC
:0B08D300062220B0037F07227F0022D6
:10051400E4FEF508C2C4D2C2D2B5D2B4E5B0540FD9
:10052400D2C4C2C2D2B5D2B4C4F8540FC868FFEE64
:10053400C454F048FEE5B0540FFDEF4DD2C4D2C20E
:10054400C2B5D2B4C4F8540FC868FFEEC454F0481E
:10055400FEE5B0540FFDEF4DD2C4D2C2D2B5C2B441
:10056400C4F8540FC868FFEEC454F048FEE5B05414
:100574000FFDEF4DF4FFEEF4FEEF8EF01206CE0603
:10058400120001060D000206080004060300080517
:10059400FE001005F9002005F4004005EF00800579
:1005A400EA010005E5020005E0040005DB0800059A
:1005B400D6100005D1200005CC400005C7800000FE
:1005C400000617750804804E7508058049750806ED
:1005D4008044750807803F750808803A75080980CB
:1005E4003575080A803075080B802B75080C802639
:1005F40075080D802175080E801C75080F8017750D
:1006040008108012750811800D750812800875088D
:08061400138003E4F508AF08B0
:01061C0022BB
:1008F400438E805389F0758A20758CD1C28DD28C39
:03090400D2A92253
:06036A008B088A09890AD4
:10037000E4F50EF50FE50ED394074003020513AB29
:1003800008AA09A90A850F8275830012063612068B
:10039000A804D30004D32003CB3003DC3103ED32B7
:1003A00003FE33040F34042035043136044237048D
:1003B000533804633904734104934304B34504C3BD
:1003C0004604836204A364000004E4AB0BAA0CA9F6
:1003D0000D850E8275830074C00204E1AB0BAA0C7C
:1003E000A90D850E8275830074F90204E1AB0BAA96
:1003F0000CA90D850E8275830074A40204E1AB0B79
:10040000AA0CA90D850E8275830074B00204E1ABBD
:100410000BAA0CA90D850E8275830074990204E164
:10042000AB0BAA0CA90D850E827583007492020491
:10043000E1AB0BAA0CA90D850E82758300748202B4
:1004400004E1AB0BAA0CA90D850E8275830074F82C
:100450000204E1AB0BAA0CA90D850E827583007412
:1004600080807EAB0BAA0CA90D850E82758300746B
:1004700090806EAB0BAA0CA90D850E82758300745B
:1004800088805EAB0BAA0CA90D850E827583007463
:1004900083804EAB0BAA0CA90D850E827583007468
:1004A000C6803EAB0BAA0CA90D850E827583007425
:1004B000A1802EAB0BAA0CA90D850E82758300744A
:1004C00086801EAB0BAA0CA90D850E827583007465
:1004D00081800EAB0BAA0CA90D850E82758300746A
:1004E000FF120675850F82758300A3AB08AA09A9C0
:1004F0000A120636B42E15AB0BE50D250EF9E435C0
:100500000CFA12061D547F120663050F050E050F27
:030510000203756E
:0105130022C5
:10084F008D82758300120636F580E5A0541F44E0B3
:10085F00F5A053A01FAF05A8077401088002C3338A
:10086F00D8FCF580E5A0541F44C0F5A053A01F226B
:0300030025640071
:100907000123000224000002260000042800000042
:0109170000DF
:100919001208A61208F4D2AF1208DE12081680F8DF
:10081600C3E5259414E5249400402DE4F524F5253C
:10082600750BFF750C00750D03F50E85230FFB7A0E
:1008360000793412006A750B00750C00750D2C7B5F
:09084600007A00793412036A22E1
:1008DE00C3E5279414E5269400400AE4F526F5278F
:0608EE001205148F232205
:03000B0002079752
:10079700C0E0C0F0C083C082C0D075D000C000C028
:1007A70001C002C003C004C005C006C0070525E597
:1007B70025700205240527E52770020526E52B2469
:1007C70001F52BE4352AF52AE43529F529E43528FE
:1007D700F528E52B5401FFE4FEFDFCFBFAF9F8C30D
:1007E700120697700FE522045407F5227A00792C38
:1007F700FD12084FD007D006D005D004D003D00291
:0F080700D001D000D0D0D082D083D0F0D0E0325A
:1008A6007580FFE5A0541F4480F5A053A01FE4F512
:0D08B60080E5A0541F44A0F5A053A01F2210
:0300000002070BE9
:0C070B00787FE4F6D8FD75813D020752AE
:10061D00BB010689828A83E0225002E722BBFE02DB
:09062D00E32289828A83E493220E
:10063600BB010CE58229F582E5833AF583E0225079
:1006460006E92582F8E622BBFE06E92582F8E222C3
:0D065600E58229F582E5833AF583E49322DD
:10066300BB010689828A83F0225002F722BBFE0176
:02067300F32270
:10067500F8BB010DE58229F582E5833AF583E8F0BB
:10068500225006E92582C8F622BBFE05E92582C867
:02069500F2224F
:10069700EB9FF5F0EA9E42F0E99D42F0E89C45F0B9
:0106A7002230
:1006A800D083D082F8E4937012740193700DA3A3E1
:1006B80093F8740193F5828883E4737402936860F5
:0606C800EFA3A3A380DFF5
:1006CE00D083D082F8E4937012740193700DA3A3BB
:1006DE0093F8740193F5828883E473740293B5F0F2
:0D06EE00067403936860E9A3A3A3A380D85A
:10000E00E517240BF8E60517227808300702780B5F
:10001E00E475F0011206FB02061D2000EB7F2ED2C6
:10002E00008018EF540F2490D43440D4FF30040BCA
:10003E00EF24BFB41A0050032461FFE518600215C7
:10004E0018051BE51B7002051A30070D7808E475BC
:10005E00F0011206FBEF02066302087F7403D2075B
:10006E008003E4C207F5178B088A09890AE4F5189C
:10007E00F51AF51BE51860077F2012004980F5750B
:10008E0019FFC201C200C202C203C205C206C208E3
:10009E00120017FF700D3007057F0012005AAF1BBC
:1000AE00AE1A22B4255FC2D5C204120017FF24D0A7
:1000BE00B40A00501A75F00A781830D50508B6FF44
:1000CE000106C6A426F620D5047002D20380D924D8
:1000DE00CFB41A00EF5004C2E5D20402025AD20184
:1000EE0080C6D20080C0D20280BCD2D580BAD205E2
:1000FE0080B47F201200492002077401B518004019
:10010E00F112000EFF120049020082D208D20680C0
:10011E009512000EFB12000EFA12000EF94A4B70E9
:10012E0006792B7A037BFF20022EE518602A7E00CB
:10013E008E8275830012063660060EEE651970F01B
:10014E00C2D5EBC0E0EAC0E0E9C0E0EE1202A1D0F9
:10015E00E0F9D0E0FAD0E0FB12061DFF60AAEBC07A
:10016E00E0EAC0E0E9C0E0120049D0E02401F9D095
:10017E00E03400FAD0E0FBE5190460DCD519D98033
:10018E00877BFF7A02799DD202809C79108002795A
:10019E0008C206C2088008D2D5790A8004790AC23C
:1001AE00D5E519047002F519E4FAFDFEFF12000EF2
:1001BE00FC7B0820011312000EFD7B1030000A128A
:1001CE00000EFE12000EFF7B20EC3382D592D5502E
:1001DE0013C3E43000069FFFE49EFEE42001039D5E
:1001EE00FDE49CFCE4CBF8C201EC700CCFCECDCC80
:1001FE00E824F8F870F38017C3EF33FFEE33FEED0B
:10020E0033FDEC33FCEB33FB994002FB0FD8E9EBEB
:10021E00300105F8D0E0C448B201C0E00AEC4D4E02
:10022E004F78207B0070C2EAB5190040BCC0E012C6
:10023E0002A3D0F0D0E0200104C4C0E0C4B201C0DB
:10024E00F0120032D0F0D5F0EB0200821206A801B7
:10025E001F5301995800F04C00EC42019D4F01A52F
:0F026E004401A54901054301AB55018F46018F9E
:10027D0045018F47034B5000F42D00F82E011B2B29
:10028D0000FC2301192003342A00B4480000011397
:10029D003F3F3F00790AA2D5200314300509B9105C
:1002AD00020404B9080104A2D5200602500104205D
:1002BD0002689202B518005034C0E07F2030031957
:1002CD007F30A20272067205500F1202FAC202C2EC
:1002DD0006C205C2087F30800F300503E9C0E01269
:1002ED000049300503D0E0F9D0E0B518CC30051742
:1002FD007F30B9100C1200497F583004077F788089
:10030D0003B908031200493002057F2D0200497F11
:10031D00202008F87F2B2006F322920280CF286E32
:10032D00756C6C2900D20112000E3001F8C20178F3
:10033D001830D50108F60200B42D5043495812006B
:10034D000E2403B405004001E49003469312003AD5
:0D035D00743A12003AD20375180402019997
:10071700020919E493A3F8E493A34003F68001F2D6
:1007270008DFF48029E493A3F85407240CC8C333E3
:10073700C4540F4420C8834004F456800146F6DFB2
:10074700E4800B0102040810204080900907E47E32
:10075700019360BCA3FF543F30E509541FFEE493A7
:10076700A360010ECF54C025E060A840B8E493A36E
:10077700FAE493A3F8E493A3C8C582C8CAC583CA99
:10078700F0A3C8C582C8CAC583CADFE9DEE780BE51
:0109180000DE
:1006FB00FAE6FB0808E6F925F0F618E6CA3AF62200
:10087F00EFB40A07740D12088A740A309811A899F8
:10088F00B8130CC2983098FDA899C298B811F630D9
:07089F0099FDC299F59922B1
:00000001FF
