:02004100AD0709
:10004300E4FB7E007480A803088006CEA2E713CEEB
:1000530013D8F8FFEDF582EF558224FF92B4D2B6A0
:0A006300C2B60BBB08DCD2B5C2B573
:01006D002270
:10006E00AE05AC07AF06120041AF04A807748008B6
:10007E008002C313D8FCF4F5807F017E001200923B
:04008E007580FF2258
:10000300C2B6C2B57D3CE4FF12006E7D427F011291
:10001300006E7DA97F0212006E7D857F0312006E44
:100023007D857F0412006E7DA97F0512006E7D42DF
:0E0033007F0612006E7D3C7F0712006E80C6B5
:10009200D3EF9400EE94004010007D027CC7DCFE9A
:0900A200DDFCEF1F70EA1E80E78F
:0100AB002232
:030000000200AC4F
:0C00AC00787FE4F6D8FD758107020003A0
:00000001FF
