:0300E30001080011
:1000C60012008FAF087E001200DB05087FE87E0372
:0500D6001200AC80EEF9
:1000AC00D3EF9400EE94004010007D027CC7DCFE80
:0900BC00DDFCEF1F70EA1E80E775
:0100C5002218
:10008F0053877F759850538EBF538EFE53890F43FE
:0D009F008920758BFD758DFDC2ABD28E22C0
:0800DB008F993099FDC29922B2
:03000000020003F8
:0C000300787FE4F6D8FD75810802004A01
:10000F000200C6E493A3F8E493A34003F68001F241
:10001F0008DFF48029E493A3F85407240CC8C333F2
:10002F00C4540F4420C8834004F456800146F6DFC1
:10003F00E4800B01020408102040809000E3E47E6E
:10004F00019360BCA3FF543F30E509541FFEE493B6
:10005F00A360010ECF54C025E060A840B8E493A37D
:10006F00FAE493A3F8E493A3C8C582C8CAC583CAA8
:10007F00F0A3C8C582C8CAC583CADFE9DEE780BE60
:0100E6000019
:00000001FF
