:1005370020202D20202D20200020203A20203A2086
:02054700200092
:0605490001280001290059
:100267001205237BFF7A0579377D017F0112047818
:100277007BFF7A0579407D017F021204781205839E
:1002870012000312014EE518FB7A00750C027D017E
:100297007F011204B9E519FB7A00750C027D047F12
:1002A700011204B9E51AFB7A00750C027D077F017C
:1002B7001204B9E51BFB7A00750C027D017F02125F
:1002C70004B9E51CFB7A00750C027D047F02120459
:1002D700B9E51DFB7A00750C027D077F021204B990
:0902E7007F327E001204F3809ABC
:06055800C2A58F80D2A7AE
:08055E007F027EEFDEFEDFFCF0
:010566002272
:0A056700C2A6120558C2A702055EE5
:10049B00CFCDCFCECCCE1200F97C007D0A1200F965
:0404AB00ED2430FF0D
:0A04AF00D2A6120558C2A702055E8E
:10050D00AE07BE0104ED148006BE0209ED243F4482
:06051D0080FF12056722B9
:100523007F381205677F0C1205677F061205677F08
:040533000102056755
:0A057100AC0312050DAF040204AF45
:060478008B088A09890AC5
:10047E0012050DE4FDAB08AA09A90A8D8275830049
:0C048E001200BAFF60061204AF0D80E9F6
:01049A00223F
:0C0445007F0AEA24FFFDE434FFFC7E0087
:080451008E0D8F0E8C0F8D1033
:100459007F017E00E4FBEBC39510E50F6480F8741F
:0E0469008098500AAC0DAD0E1200E70B80E833
:010477002262
:0404B9008A0A8B0B15
:1004BD0012050DAA0CEAD39400400D120445AC0AA6
:0804CD00AD0B12049B1A80ED37
:0104D5002204
:10039A0012050DC3EA64809480400B7F2B1204AFD0
:1003AA008A168B17800E7F2D1204AFC3E49BF517B4
:1003BA00E49AF516AA15EAD39400400D120445AC46
:0903CA0016AD1712049B1A80ED18
:0103D3002207
:0403D4008A208B21CF
:1003D80012050DAA22EAD3940040297F101204477F
:1003E800AC20AD21CFCDCFCECCCE1200F9EF540F3B
:1003F800FEC3940AEE5004243080022437FF12040E
:04040800AF1A80D1D6
:01040C0022CD
:04040D008A258B268B
:1004110012050DAA27EAD394004028EA24FFFDE43F
:1004210034FFFC7F027E00120451AC25AD26CFCDF6
:10043100CFCECCCE1200F9EF54012430FF1204AF1D
:030441001A80D24C
:010444002295
:08054F000618170C0E14240419
:05058300C2B5C2B62262
:0302F00025F0FDF9
:0202F300A90759
:1002F500E4FBD2B57E007401A803088005C333CEA4
:1003050033CED8F9FFE9F582EF558224FF92B4D2B6
:10031500B6C2B60BBB08DDE4FBD2B57E007401A8FE
:1003250003088005C333CE33CED8F9FFEDF582EF50
:10033500558224FF92B4D2B6C2B60BBB08DBC2B558
:02034500C2B63E
:010347002293
:02034800AD07FF
:10034A00E4F9FB430501D2B5D2B57E007401A803D6
:10035A00088005C333CE33CED8F9FFEDF582EF55C9
:10036A008224FF92B4C2B6D2B60BBB08DBE4FBD23E
:10037A00B6C2B630B40DA8037401088002C333D8DC
:0F038A00FC42010BBB08E8C2B5C2B6C2B4AF015A
:010399002241
:10000300E4FD7F8E1202F3E51875F00A84C454F000
:10001300FFE51875F00A84EF7F8C1202F0E519757D
:10002300F00A84C454F0FFE51975F00A84EF7F8861
:100033001202F0E51A75F00A84C454F0FFE51A754C
:10004300F00A84EF25F0FD7F861202F3E51B75F0BD
:100053000A84C454F0FFE51B75F00A84EF25F0FD14
:100063007F841202F3E51C75F00A84C454F0FFE5A3
:100073001C75F00A84EF25F0FD7F821202F3E51D63
:1000830075F00A84C454F0FFE51D75F00A84EF256A
:10009300F0FD7F801202F3E51E75F00A84C454F06C
:1000A300FFE51E75F00A84EF25F0FD7F8A1202F347
:0700B3007D817F8E0202F344
:10014E007F8C120348EFC4540F75F00AA4FEEF54CF
:10015E000F2EF5187F88120348EFC4540F75F00A5E
:10016E00A4FEEF540F2EF5197F86120348EFC454E8
:10017E000F75F00AA4FEEF540F2EF51A7F841203AA
:10018E0048EFC4540F75F00AA4FEEF540F2EF51B62
:10019E007F82120348EFC4540F75F00AA4FEEF5489
:1001AE000F2EF51C7F80120348EFC4540F75F00A12
:1001BE00A4FEEF540F2EF51D7F8A120348EFC45490
:0C01CE000F75F00AA4FEEF540F2EF51E72
:0101DA002202
:1004F300D3EF9400EE94004010007D027CC7DCFE35
:09050300DDFCEF1F70EA1E80E729
:01050C0022CC
:1004D60053877F759850538EBF538EFE53890F43B3
:0D04E6008920758BFD758DFDC2ABD28E2275
:08057B008F993099FDC299220D
:030000000201DB1F
:0C01DB00787FE4F6D8FD7581290202222D
:1000BA00BB010CE58229F582E5833AF583E02250FB
:1000CA0006E92582F8E622BBFE06E92582F8E22245
:0D00DA00E58229F582E5833AF583E493225F
:1000E700EF8DF0A4A8F0CF8CF0A428CE8DF0A42E2D
:0200F700FE22E7
:1000F900BC000BBE0029EF8DF084FFADF022E4CCEB
:10010900F875F008EF2FFFEE33FEEC33FCEE9DECB3
:10011900984005FCEE9DFE0FD5F0E9E4CEFD22EDF9
:10012900F8F5F0EE8420D21CFEADF075F008EF2F43
:10013900FFED33FD4007985006D5F0F222C398FD34
:050149000FD5F0EA22D1
:1001E700020267E493A3F8E493A34003F68001F2C5
:1001F70008DFF48029E493A3F85407240CC8C33319
:10020700C4540F4420C8834004F456800146F6DFE7
:10021700E4800B0102040810204080900549E47E29
:10022700019360BCA3FF543F30E509541FFEE493DC
:10023700A360010ECF54C025E060A840B8E493A3A3
:10024700FAE493A3F8E493A3C8C582C8CAC583CACE
:10025700F0A3C8C582C8CAC583CADFE9DEE780BE86
:0105570000A3
:00000001FF
