:100E2B00438E805389F0758A20758CD1C28DD28CFC
:030E3B00D2A92217
:060A14008B228A238924D5
:100A1A00E4F528F529E528D394074003020BBDAB7A
:100A2A0022AA23A9248529827583001204EF1205BC
:100A3A007F0B7D000B7D200A75300A86310A9732BA
:100A4A000AA8330AB9340ACA350ADB360AEC370A65
:100A5A00FD380B0D390B1D410B3D430B5D450B6DED
:100A6A00460B2D620B4D6400000B8EAB25AA26A9FE
:100A7A002785288275830074C0020B8BAB25AA26B2
:100A8A00A92785288275830074F9020B8BAB25AAE6
:100A9A0026A92785288275830074A4020B8BAB25AF
:100AAA00AA26A92785288275830074B0020B8BAB0E
:100ABA0025AA26A9278528827583007499020B8B9B
:100ACA00AB25AA26A9278528827583007492020B72
:100ADA008BAB25AA26A927852882758300748202F2
:100AEA000B8BAB25AA26A92785288275830074F863
:100AFA00020B8BAB25AA26A9278528827583007449
:100B0A0080807EAB25AA26A9278528827583007452
:100B1A0090806EAB25AA26A9278528827583007442
:100B2A0088805EAB25AA26A927852882758300744A
:100B3A0083804EAB25AA26A927852882758300744F
:100B4A00C6803EAB25AA26A927852882758300740C
:100B5A00A1802EAB25AA26A9278528827583007431
:100B6A0086801EAB25AA26A927852882758300744C
:100B7A0081800EAB25AA26A9278528827583007451
:100B8A00FF12052E852982758300A3AB22AA23A909
:100B9A00241204EFB42E15AB25E5272528F9E435F0
:100BAA0026FA1204D6547F12051C052905280529A0
:030BBA00020A1F0D
:010BBD002215
:100D17008D827583001204EFF580E5A0541F44E02F
:100D2700F5A053A01FAF05A8077401088002C333BD
:100D3700D8FCF580E5A0541F44C0F5A053A01F229E
:040DF7007F057E00F6
:100DFB00EF1FAA0670011E4A600BE4FDEDC3940CB5
:050E0B0050EE0D80F720
:010E100022BF
:020DBC00A90785
:100DBE00E4FBC294E9139294120DF7D294E9C31393
:0C0DCE00F90BBB08ED7F057E00020DFB59
:100E1100E4FBC294ECC313FCD294309403430480EA
:090E2100120DF70BBB08EBAF0446
:010E2A0022A5
:100D4700C200D2947F0C7E00120DFBC2947F507EAE
:100D570000120DFBD2947F0A7E00120DFBA2949223
:060D670000120DF7A200CE
:010D6D002263
:100D6E00120D477FCC120DBC7F44120DBC120D47E5
:100D7E007FCC120DBC7FBE120DBC120E11A9071234
:060D8E000E11EFFEE9FF6B
:010D9400223C
:100DDA007580FFE5A0541F4480F5A053A01FE4F5D9
:0D0DEA0080E5A0541F44A0F5A053A01F22D7
:05000300252E3266000D
:0A0E4B0004410000000002570000FF
:0D0E3E00120DDA120E2BD2AF120CC180FB88
:100CC100C3E54094C8E53F9400404AE4F53FF54050
:100CD100120D6E8E578F587525FF752600752703E7
:100CE100AC57AD58E41200B3E4FBFA7980784112B5
:100CF10000118F2B8E2A8D298C287B007A00794D4B
:100D01001206017525007526007527457B007A00BE
:060D1100794D120A1422C4
:03000B00020C4A9A
:100C4A00C0E0C0F0C083C082C0D075D000C000C070
:100C5A0001C002C003C004C005C006C0070540E5C4
:100C6A00407002053FE5442401F544E43543F54369
:100C7A00E43542F542E43541F541E5445401FFE4E7
:100C8A00FEFDFCFBFAF9F8C312055E700FE53E049F
:100C9A005407F53E7A007945FD120D17D007D006A4
:100CAA00D005D004D003D002D001D000D0D0D08259
:070CBA00D083D0F0D0E0323E
:10000E0002012BEC5D046005E85904700302012126
:10001E001200EC580460F6EC4860F2EC7004FDFE41
:10002E00FF22C860DB2481C85009C39860025006C5
:10003E000201289850CAF582E9294B4A7005AB8215
:10004E0002011775F0007C1A7880C3EF9BEE9AEDD3
:10005E0099400DC3EF9BFFEE9AFEED99FDE842F03D
:10006E00DC23ACF0D0E0FFD0E0FED0E0FDAB822090
:10007E00E7101BEB60BAEC2CFCEF33FFEE33FEED1A
:10008E0033FD020103E803F830E705C0F075F00018
:10009E00EF2FFFEE33FEED33FD40B830E7C280AAFE
:1000AE0075F020800E75F010800575F0087D007ECD
:1000BE00007F003392D530D503120550EC3340103B
:1000CE00EF33FFEE33FEED33FDEC33FCD5F0ED22D6
:0E00DE00E5F0247EA2D513CC92E7CDCEFF2212
:1005A500E5392425F8E60539227822300702782531
:1005B500E475F00112056F0204D62000EB7F2ED200
:1005C500008018EF540F2490D43440D4FF30040B2E
:1005D500EF24BFB41A0050032461FFE53A60021509
:1005E5003A053DE53D7002053C30070D7822E4757E
:1005F500F00112056FEF02051C020D957403D20779
:100605008003E4C207F5398B228A238924E4F53A6D
:10061500F53CF53DE53A60077F201205E080F5756C
:100625003BFFC201C200C202C203C205C206C20824
:100635001205AEFF700D3007057F001205F1AF3DC5
:10064500AE3C22B4255FC2D5C2041205AEFF24D04C
:10065500B40A00501A75F00A783A30D50508B6FF85
:100665000106C6A426F620D5047002D20380D9243B
:10067500CFB41A00EF5004C2E5D2040208DED2015D
:1006850080C6D20080C0D20280BCD2D580BAD20545
:1006950080B47F201205E02002077401B53A0040BE
:1006A500F11205A5FF1205E0020619D208D206804F
:1006B500951205A5FB1205A5FA1205A5F94A4B7079
:1006C5000679D57A097BFF20022EE53A602A7E005D
:1006D5008E827583001204EF60060EEE653B70F0A6
:1006E500C2D5EBC0E0EAC0E0E9C0E0EE12093ED0B9
:1006F500E0F9D0E0FAD0E0FB1204D6FF60AAEBC027
:10070500E0EAC0E0E9C0E01205E0D0E02401F9D05C
:10071500E03400FAD0E0FBE53B0460DCD53BD98052
:1007250087D20280A212092160F7E53B700104120D
:100735000136A93B600DE53B600914F53B1209C87C
:10074500EF60F3EA30E702F404C3995077EAF42541
:100755003B0430E701E404F53B800D12092160C13B
:10076500EA053B253B120136EA7838F630E701E425
:10077500253B04D53B042005011412093EE4C0E0E5
:100785001209C87838E6601320E70714F61205C881
:10079500802204F6D0E014C0E07F001205C8E53BD6
:1007A50060071205BF153B800B3005031205BFD04E
:1007B500E0020619D0E00480C512092160A0E53BDE
:1007C500041201367838EAF6E53B2005026001049B
:0507D500240412093E9E
:1007DA0074FF04C0E01209C81205C8E53B200502EF
:1007EA0060031205BFD0E0B53BE87F451205D27819
:1007FA0038E67F2B30E7047F2DF404C0E01205E0D1
:10080A00D0E075F00A84C0F01205C9D0E01205C91B
:10081A00020619791080027908C206C2088008D235
:10082A00D5790A8004790AC2D5E53B047002F53B02
:10083A00E4FAFDFEFF1205A5FC7B08200113120550
:10084A00A5FD7B1030000A1205A5FE1205A5FF7B47
:10085A0020EC3382D592D55013C3E43000069FFFB3
:10086A00E49EFEE42001039DFDE49CFCE4CBF8C277
:10087A0001EC700CCFCECDCCE824F8F870F38017D9
:10088A00C3EF33FFEE33FEED33FDEC33FCEB33FB0A
:10089A00994002FB0FD8E9EB300105F8D0E0C448D3
:1008AA00B201C0E00AEC4D4E4F78207B0070C2EADC
:1008BA00B53B0040BCC0E0120940D0F0D0E02001B6
:1008CA0004C4C0E0C4B201C0F01205C9D0F0D5F02A
:1008DA00EB02061912057F06B653081D5806874C07
:1008EA0006834208214F082944082949069C4308DF
:1008FA002F5507604607BE45072A4709F550068B5C
:10090A002D068F2E06B22B06932306B02009DE2A67
:10091A00064B48000006AAE53BB4FF03753B0612E6
:10092A0005A5FC1205A5FD1205A5FE1205A5FF7871
:10093A0031020165790AA2D5200314300509B910DC
:10094A00020404B9080104A2D520060250010420B9
:10095A0002689202B53A005034C0E07F2030031991
:10096A007F30A20272067205500F120997C202C2A4
:10097A0006C205C2087F30800F300503E9C0E012C5
:10098A0005E0300503D0E0F9D0E0B53ACC300517E0
:10099A007F30B9100C1205E07F583004077F788049
:1009AA0003B908031205E03002057F2D0205E07F36
:1009BA00202008F87F2B2006F322920280CF7F00A6
:1009CA00B4070050052431F8E6FF22286E756C6CD6
:1009DA002900D2011205A53001F8C201783A30D5B2
:1009EA000108F602064B2D504349581205A5240367
:1009FA00B405004001E49009F0931205D1743A124B
:0A0A0A0005D1D203753A0402081D5D
:1000EC00E9D2E7C933E833F892D5EDD2E7CD33EC5A
:0700FC0033FC5002B2D522D3
:10010300EC30E7100FBF000C0EBE00080DBD00045D
:100113000BEB6014A2D5EB13FCED92E7FD2274FF09
:10012300FCFDFEFF22E480F8A2D574FF13FC7D8062
:03013300E480EF76
:10013600F920E72824F950037907E4F42402FB1890
:10014600DBFDE624FB5014E9600DE4F618E604F640
:0F015600B40A08E4F6D9F57401F60A22C2D522DC
:10016500ED33EC3392D5FA602AB4FF33EDC2E77B69
:10017500FF60067A01798AE4227A01799320D50411
:100185007A01798E224E614E002B494E46002D494B
:100195004E4600E47A08F608DAFC7B00740722E88C
:1001A500C0E0ECC0E0EDC0E0EEC0E0EFC0E0EA7515
:1001B500F010A4CAABF075F04DA42BFBE435F0FCB0
:1001C500EA2410FAEB34C5FBEC34D9FCEDC2E7FFA9
:1001D50075F056A4F42411C5F0F434C58FF0A42AA3
:1001E500E5F03BE43CF620E714120496D0E0FFD09E
:1001F500E0FED0E0FDD0E0FC1200118014F4041202
:100205000496D0E0FFD0E0FED0E0FDD0E0FC120384
:1002150060D0E0F8E6FAEDD2E7CD33EC332482FB8B
:10022500E4C3CF33CFCE33CECD33CD33DBF37B0732
:1002350075F00A846004F6081B0AE5F0F6088FF0ED
:10024500740AA4FFACF08EF0740AA42CFEACF05036
:10025500010C8DF0740AA42CFDE435F0F608DBDE04
:03026500740722F9
:10026800020121E86480F8E933E83360110460F0A2
:10027800ED33EC337009E8FCE9FDEAFEEBFF2204FC
:1002880060DED3EB9FEA9EE99DE8C2E78CF0C2F7F7
:1002980095F0400CE8CCF8E9CDF9EACEFAEBCFFBC3
:1002A8001200EC85D0F05804700320D5B3E8047030
:1002B800075002B2D502012B92D5EC0460F7E4CCCA
:1002C800C0E0C398F8603B94186008400DD0E0FB8C
:1002D800020103E4FBFAC9FC8028E830E406E4C91B
:1002E800FBE4CAFCE830E305E4C9CACBFCE85407E0
:1002F8006010F8C3E913F9EA13FAEB13FBEC13FCEB
:10030800D8F130F52FC3E49CFCEF9BFFEE9AFEED8D
:1003180099FDD0E0FBEF4E4D4C701222DB03020139
:1003280028EC2CFCEF33FFEE33FEED33FDED30E728
:10033800EB020103EF2BFFEE3AFEED39FDD0E0FBB7
:1003480050130BBB000302012BED13FDEE13FEEF60
:0803580013FFEC13FC0201038A
:10036000EC4D6011E8497017ED33EC3304600DE497
:10037000FCFFFEFD22E933E8330470F8020121128C
:1003800000EC58046009E4CC24815006285009028E
:10039000012B284003020128C0E0EB4A7044B980D9
:1003A00006D0E0FB020117EF4E701CBD8008EBFF8A
:1003B000EAFEE9FD80EBE98DF0A4FEE5F0020449D8
:1003C000E9CDF9EAFEEBFFEF89F0A4FCE5F0CE8978
:1003D000F0A42EFFE435F0CD89F0A42DFEE435F035
:1003E0008067EF4E7005BD80D780C3EF8BF0A4AC63
:1003F000F0EE8BF0A42CFCE435F0F8EF8AF0A42C9E
:10040000E5F038FCE433CB8DF0A42CFCE5F03BF8B0
:10041000EE8AF0A42CFCE5F038F8E433CF89F0A4A0
:100420002CFCE5F038CF3400CE89F0A42FFFE5F0A6
:100430003EFEE433C98DF0A42EFEE5F039CD8AF0FE
:10044000A42FFFE5F03EFEE43DFD33D0E0FB500776
:100450000BBB000F02012BEC2CFCEF33FFEE33FE45
:06046000ED33FD02010373
:100466003F8000004120000042C80000447A00009E
:10047600461C400047C35000497424004B18968020
:100486004CBEBC205A0E1BCA6753C21C749DC5AE17
:10049600FB60065407601C23231204C4EB54386027
:1004A600091204B01204BF120360ECF8EDF9EEFA7B
:1004B600EFCB22EB1204BF80F1543803241C9004C6
:1004C60066FE93FC0EEE93FD0EEE930ECE93FF2288
:03000000020BBE32
:0C0BBE00787FE4F6D8FD758158020C0524
:1004D600BB010689828A83E0225002E722BBFE0224
:0904E600E32289828A83E4932257
:1004EF00BB010CE58229F582E5833AF583E02250C2
:1004FF0006E92582F8E622BBFE06E92582F8E2220C
:0D050F00E58229F582E5833AF583E4932225
:10051C00BB010689828A83F0225002F722BBFE01BE
:02052C00F322B8
:10052E00F8BB010DE58229F582E5833AF583E8F003
:10053E00225006E92582C8F622BBFE05E92582C8AF
:02054E00F22297
:0E055000C3E49FFFE49EFEE49DFDE49CFC22BC
:10055E00EB9FF5F0EA9E42F0E99D42F0E89C45F0F3
:01056E00226A
:10056F00FAE6FB0808E6F925F0F618E6CA3AF6228D
:10057F00D083D082F8E4937012740193700DA3A30B
:10058F0093F8740193F5828883E47374029368601F
:06059F00EFA3A3A380DF1F
:100D9500EFB40A07740D120DA0740A309811A899C2
:100DA500B8130CC2983098FDA899C298B811F630BE
:070DB50099FDC299F5992296
:100BCA00020E3EE493A3F8E493A34003F68001F2F5
:100BDA0008DFF48029E493A3F85407240CC8C3332C
:100BEA00C4540F4420C8834004F456800146F6DFFB
:100BFA00E4800B0102040810204080900E4BE47E32
:100C0A00019360BCA3FF543F30E509541FFEE493EF
:100C1A00A360010ECF54C025E060A840B8E493A3B6
:100C2A00FAE493A3F8E493A3C8C582C8CAC583CAE1
:100C3A00F0A3C8C582C8CAC583CADFE9DEE780BE99
:010E5500009C
:00000001FF
