:050E5200252D337500A1
:0D0E4400013D000427000000000225000011
:100E0D00120DF0120E33120E20D2AF120D60120021
:030E1D000380F857
:100D6000C3E52494C8E5239400402DE4F523F5243D
:100D70007541FF75420E754352F544853D45FB7A3A
:100D800000793312064875410075420075432B7B8C
:090D9000007A007933120A5B229B
:10000300C3E52694F4E5259401400AE4F525F52695
:06001300120D108F3D22CA
:03001B00020C9143
:100C9100C0E0C0F0C083C082C0D075D000C000C029
:100CA10001C002C003C004C005C006C0070524E599
:100CB1002470020523E52A2401F52AE43529F529C2
:100CC100E43528F528E43527F5270526E5267002C1
:100CD1000525E52A5401FFE4FEFDFCFBFAF9F8C302
:100CE1001205A5700FE522045407F5227A00792B2D
:100CF100FD120D99D007D006D005D004D003D00243
:0F0D0100D001D000D0D0D082D083D0F0D0E0325B
:100DF0007580FFE5A0541F4480F5A053A01FE4F5C3
:0D0E000080E5A0541F44A0F5A053A01F22C0
:060A5B008B3E8A3F89403A
:100A6100E4F544F545E544D394074003020C04AB97
:100A71003EAA3FA9408545827583001205361205BD
:100A8100C60BC4000BC4200ABC300ACD310ADE32C9
:100A91000AEF330B00340B11350B22360B33370BB6
:100AA10044380B54390B64410B84430BA4450BB4FC
:100AB100460B74620B946400000BD5AB41AA42A9AA
:100AC1004385448275830074C0020BD2AB41AA42B4
:100AD100A94385448275830074F9020BD2AB41AA04
:100AE10042A94385448275830074A4020BD2AB41B1
:100AF100AA42A94385448275830074B0020BD2AB2C
:100B010041AA42A9438544827583007499020BD29C
:100B1100AB41AA42A9438544827583007492020BBA
:100B2100D2AB41AA42A943854482758300748202F3
:100B31000BD2AB41AA42A94385448275830074F864
:100B4100020BD2AB41AA42A943854482758300744A
:100B510080807EAB41AA42A943854482758300749B
:100B610090806EAB41AA42A943854482758300748B
:100B710088805EAB41AA42A9438544827583007493
:100B810083804EAB41AA42A9438544827583007498
:100B9100C6803EAB41AA42A9438544827583007455
:100BA100A1802EAB41AA42A943854482758300747A
:100BB10086801EAB41AA42A9438544827583007495
:100BC10081800EAB41AA42A943854482758300749A
:100BD100FF120575854582758300A3AB3EAA3FA927
:100BE10040120536B42E15AB41E5432544F9E435F1
:100BF10042FA12051D547F1205630545054405455A
:030C0100020A667E
:010C040022CD
:100D99008D82758300120536F580E5A0541F44E065
:100DA900F5A053A01FAF05A8077401088002C3333B
:100DB900D8FCF580E5A0541F44C0F5A053A01F221C
:100E2000438E4053890F758B20758DD1C28FD28E22
:030E3000D2AB2220
:100E3300538E7F5389F0758AF4758CFFC28DC28CF3
:010E4300228C
:100D10007F0AC290758AF4758CFFD28CAE071FEEE5
:100D2000600E208D07A290B3929080F6C28D80EC69
:100D3000C28CE4F58AF58CD28C309103308DFAC2E6
:100D40008C308D037FFF22AF8CEFAD8AFCEC12015B
:0F0D5000297B967A43798B783C12001E12016240
:010D5F002271
:10001E00EC4D6011E8497017ED33EC3304600DE4DC
:10002E00FCFFFEFD22E933E8330470F80201CE1224
:10003E00019958046009E4CC248150062850090225
:10004E0001D82840030201D5C0E0EB4A7044B980C4
:10005E0006D0E0FB0201C4EF4E701CBD8008EBFF22
:10006E00EAFEE9FD80EBE98DF0A4FEE5F002010762
:10007E00E9CDF9EAFEEBFFEF89F0A4FCE5F0CE89BD
:10008E00F0A42EFFE435F0CD89F0A42DFEE435F07A
:10009E008067EF4E7005BD80D780C3EF8BF0A4ACA8
:1000AE00F0EE8BF0A42CFCE435F0F8EF8AF0A42CE3
:1000BE00E5F038FCE433CB8DF0A42CFCE5F03BF8F6
:1000CE00EE8AF0A42CFCE5F038F8E433CF89F0A4E6
:1000DE002CFCE5F038CF3400CE89F0A42FFFE5F0EC
:1000EE003EFEE433C98DF0A42EFEE5F039CD8AF044
:1000FE00A42FFFE5F03EFEE43DFD33D0E0FB5007BC
:10010E000BBB000F0201D8EC2CFCEF33FFEE33FEDD
:06011E00ED33FD0201B00B
:1001240075F020800E75F010800575F0087D007E56
:10013400007F003392D530D503120597EC3340107D
:10014400EF33FFEE33FEED33FDEC33FCD5F0ED225F
:0E015400E5F0247EA2D513CC92E7CDCEFF229B
:10016200EDD2E7CD33EC3392D524814006E4FFFE95
:10017200FDFC22FCE4CFCECDCC24E0501174FF80F4
:10018200EDC3CC13CCCD13CDCE13CECF13CF047091
:07019200F030D5DE020597F5
:1005EC00E5552441F8E6055522783E30070278415E
:1005FC00E475F0011205B602051D2000EB7F2ED22A
:10060C00008018EF540F2490D43440D4FF30040BE6
:10061C00EF24BFB41A0050032461FFE556600215A5
:10062C00560559E5597002055830070D783EE475AA
:10063C00F0011205B6EF020563020DC97403D2076F
:10064C008003E4C207F5558B3E8A3F8940E4F5569A
:10065C00F558F559E55660077F2012062780F57589
:10066C0057FFC201C200C202C203C205C206C208C1
:10067C001205F5FF700D3007057F00120638AF59D3
:10068C00AE5822B4255FC2D5C2041205F5FF24D0A2
:10069C00B40A00501A75F00A785630D50508B6FF22
:1006AC000106C6A426F620D5047002D20380D924F4
:1006BC00CFB41A00EF5004C2E5D204020925D201CE
:1006CC0080C6D20080C0D20280BCD2D580BAD205FE
:1006DC0080B47F201206272002077401B556004013
:1006EC00F11205ECFF120627020660D208D2068032
:1006FC00951205ECFB1205ECFA1205ECF94A4B705D
:10070C0006791C7A0A7BFF20022EE556602A7E00B1
:10071C008E8275830012053660060EEE655770F0FA
:10072C00C2D5EBC0E0EAC0E0E9C0E0EE120985D02A
:10073C00E0F9D0E0FAD0E0FB12051DFF60AAEBC097
:10074C00E0EAC0E0E9C0E0120627D0E02401F9D0CD
:10075C00E03400FAD0E0FBE5570460DCD557D980D3
:10076C0087D20280A212096860F7E5577001041263
:10077C0001E3A957600DE557600914F557120A0FEC
:10078C00EF60F3EA30E702F404C3995077EAF425FA
:10079C00570430E701E404F557800D12096860C175
:1007AC00EA055725571201E3EA7854F630E701E4DD
:1007BC00255704D5570420050114120985E4C0E01F
:1007CC00120A0F7854E6601320E70714F612060F8E
:1007DC00802204F6D0E014C0E07F0012060FE5572B
:1007EC0060071206061557800B300503120606D05B
:1007FC00E0020660D0E00480C512096860A0E557ED
:10080C00041201E37854EAF6E5572005026001046E
:05081C0024041209850F
:1008210074FF04C0E0120A0F12060FE557200502FB
:100831006003120606D0E0B557E87F451206197825
:1008410054E67F2B30E7047F2DF404C0E012062725
:10085100D0E075F00A84C0F0120610D0E012061044
:10086100020660791080027908C206C2088008D2A7
:10087100D5790A8004790AC2D5E557047002F55783
:10088100E4FAFDFEFF1205ECFC7B082001131205C2
:10089100ECFD7B1030000A1205ECFE1205ECFF7B2B
:1008A10020EC3382D592D55013C3E43000069FFF6C
:1008B100E49EFEE42001039DFDE49CFCE4CBF8C230
:1008C10001EC700CCFCECDCCE824F8F870F3801792
:1008D100C3EF33FFEE33FEED33FDEC33FCEB33FBC3
:1008E100994002FB0FD8E9EB300105F8D0E0C4488C
:1008F100B201C0E00AEC4D4E4F78207B0070C2EA95
:10090100B5570040BCC0E0120987D0F0D0E020010B
:1009110004C4C0E0C4B201C0F0120610D0F0D5F09A
:10092100EB0206601205C606FD5308645806CE4C5C
:1009310006CA4208684F08704408704906E3430834
:10094100765507A7460805450771470A3C5006D268
:100951002D06D62E06F92B06DA2306F7200A252ABC
:10096100069248000006F1E557B4FF0375570612D9
:1009710005ECFC1205ECFD1205ECFE1205ECFF780E
:100981004D020212790AA2D5200314300509B910CB
:10099100020404B9080104A2D52006025001042072
:1009A10002689202B556005034C0E07F203003192E
:1009B1007F30A20272067205500F1209DEC202C216
:1009C10006C205C2087F30800F300503E9C0E0127E
:1009D1000627300503D0E0F9D0E0B556CC30051735
:1009E1007F30B9100C1206277F583004077F7880BA
:1009F10003B908031206273002057F2D0206277F5F
:100A0100202008F87F2B2006F322920280CF7F005E
:100A1100B407005005244DF8E6FF22286E756C6C72
:100A21002900D2011205EC3001F8C201785630D507
:100A31000108F60206922D504349581205EC240391
:100A4100B405004001E4900A3793120618743A1273
:0A0A51000618D2037556040208646B
:10019900E9D2E7C933E833F892D5EDD2E7CD33ECAC
:0701A90033FC5002B2D52225
:1001B000EC30E7100FBF000C0EBE00080DBD0004B0
:1001C0000BEB6014A2D5EB13FCED92E7FD2274FF5C
:1001D000FCFDFEFF22E480F8A2D574FF13FC7D80B5
:0301E000E480EFC9
:1001E300F920E72824F950037907E4F42402FB18E3
:1001F300DBFDE624FB5014E9600DE4F618E604F693
:0F020300B40A08E4F6D9F57401F60A22C2D5222E
:10021200ED33EC3392D5FA602AB4FF33EDC2E77BBB
:10022200FF60067A027937E4227A02794020D50407
:100232007A02793B224E614E002B494E46002D49EF
:100242004E4600E47A08F608DAFC7B00740722E8DE
:10025200C0E0ECC0E0EDC0E0EEC0E0EFC0E0EA7567
:10026200F010A4CAABF075F04DA42BFBE435F0FC02
:10027200EA2410FAEB34C5FBEC34D9FCEDC2E7FFFB
:1002820075F056A4F42411C5F0F434C58FF0A42AF5
:10029200E5F03BE43CF620E7141204DDD0E0FFD0A9
:1002A200E0FED0E0FDD0E0FC1204108014F4041251
:1002B20004DDD0E0FFD0E0FED0E0FDD0E0FC120093
:1002C2001ED0E0F8E6FAEDD2E7CD33EC332482FB20
:1002D200E4C3CF33CFCE33CECD33CD33DBF37B0785
:1002E20075F00A846004F6081B0AE5F0F6088FF040
:1002F200740AA4FFACF08EF0740AA42CFEACF05089
:10030200010C8DF0740AA42CFDE435F0F608DBDE56
:030312007407224B
:100315000201CEE86480F8E933E83360110460F047
:10032500ED33EC337009E8FCE9FDEAFEEBFF22044E
:1003350060DED3EB9FEA9EE99DE8C2E78CF0C2F749
:1003450095F0400CE8CCF8E9CDF9EACEFAEBCFFB15
:1003550012019985D0F05804700320D5B3E80470D4
:10036500075002B2D50201D892D5EC0460F7E4CC6F
:10037500C0E0C398F8603B94186008400DD0E0FBDE
:100385000201B0E4FBFAC9FC8028E830E406E4C9C0
:10039500FBE4CAFCE830E305E4C9CACBFCE8540732
:1003A5006010F8C3E913F9EA13FAEB13FBEC13FC3D
:1003B500D8F130F52FC3E49CFCEF9BFFEE9AFEEDE0
:1003C50099FDD0E0FBEF4E4D4C701222DB0302018C
:1003D500D5EC2CFCEF33FFEE33FEED33FDED30E7CE
:1003E500EB0201B0EF2BFFEE3AFEED39FDD0E0FB5D
:1003F50050130BBB00030201D8ED13FDEE13FEEF06
:0804050013FFEC13FC0201B02F
:10040D000201D8EC5D046005E8590470030201CEC9
:10041D00120199580460F6EC4860F2EC7004FDFE90
:10042D00FF22C860DB2481C85009C39860025006C2
:10043D000201D59850CAF582E9294B4A7005AB8265
:10044D000201C475F0007C1A7880C3EF9BEE9AED23
:10045D0099400DC3EF9BFFEE9AFEED99FDE842F03A
:10046D00DC23ACF0D0E0FFD0E0FED0E0FDAB82208D
:10047D00E7101BEB60BAEC2CFCEF33FFEE33FEED17
:10048D0033FD0201B0E803F830E705C0F075F00068
:10049D00EF2FFFEE33FEED33FD40B830E7C280AAFB
:1004AD003F8000004120000042C80000447A000057
:1004BD00461C400047C35000497424004B189680D9
:1004CD004CBEBC205A0E1BCA6753C21C749DC5AED0
:1004DD00FB60065407601C232312050BEB54386098
:1004ED00091204F712050612001EECF8EDF9EEFAEA
:1004FD00EFCB22EB12050680F1543803241C900437
:10050D00ADFE93FC0EEE93FD0EEE930ECE93FF22F9
:03000000020C05EA
:0C0C0500787FE4F6D8FD758159020C4C94
:10051D00BB010689828A83E0225002E722BBFE02DC
:09052D00E32289828A83E493220F
:10053600BB010CE58229F582E5833AF583E022507A
:1005460006E92582F8E622BBFE06E92582F8E222C4
:0D055600E58229F582E5833AF583E49322DE
:10056300BB010689828A83F0225002F722BBFE0177
:02057300F32271
:10057500F8BB010DE58229F582E5833AF583E8F0BC
:10058500225006E92582C8F622BBFE05E92582C868
:02059500F22250
:0E059700C3E49FFFE49EFEE49DFDE49CFC2275
:1005A500EB9FF5F0EA9E42F0E99D42F0E89C45F0AC
:0105B5002223
:1005B600FAE6FB0808E6F925F0F618E6CA3AF62246
:1005C600D083D082F8E4937012740193700DA3A3C4
:1005D60093F8740193F5828883E4737402936860D8
:0605E600EFA3A3A380DFD8
:100DC900EFB40A07740D120DD4740A309811A8995A
:100DD900B8130CC2983098FDA899C298B811F6308A
:070DE90099FDC299F5992262
:100C1100020E0DE493A3F8E493A34003F68001F2DE
:100C210008DFF48029E493A3F85407240CC8C333E4
:100C3100C4540F4420C8834004F456800146F6DFB3
:100C4100E4800B0102040810204080900E44E47EF1
:100C5100019360BCA3FF543F30E509541FFEE493A8
:100C6100A360010ECF54C025E060A840B8E493A36F
:100C7100FAE493A3F8E493A3C8C582C8CAC583CA9A
:100C8100F0A3C8C582C8CAC583CADFE9DEE780BE52
:010E510000A0
:00000001FF
