:1003A7000C1C3F065B4F666D7D077F6F3E40012843
:0103B7000045
:0402EE007D0A7F0105
:1002F200EF14B40800505490030775F003A4C583AB
:1003020025F0C5837302031F02032302032702039E
:100312002B02032F02033702033F020347D2A480BA
:100322000ED2A48012D2A48016D2A4801AC2A4D261
:10033200A3D2A28016C2A4D2A3C2A2800EC2A4C219
:10034200A3D2A28006C2A4C2A3C2A2741C2DF8E644
:0D035200F5807F017E0012038DE4F580220E
:10035F00E4F52830B10930B00630B20320B31C7F6A
:10036F00057E0012038D20B103752801C392B020C2
:0E037F00B20375280320B303752804AF2822AB
:10000300E4F508F509F50AF50BF50C750D01F50E88
:10001300F50FF510F511F512F513F514F515F516A1
:06002300F517F518F519B0
:10002900E4F51AF51B12035F8F1AE51A6078E51BD0
:100039007011E51AB4010C750800750901750C00F9
:10004900750D01E51B7019E51AB4021475080075E0
:100059000902E4F512F513F50EF50FF50C750D010E
:10006900E51B7019E51AB40314750800750903E452
:10007900F510F511F50AF50BF50C750D01E51B7079
:1000890025E51AB40420750800750904E50D640115
:10009900450C700AF514F515F50CF50D80080515D4
:1000A900E51570020514E5086003020029E5092435
:1000B900FE602814700302014E1470030201B0247B
:1000C9000360030200291202EE7D017F021202F28F
:1000D900E4FD7F071202F27D0180621202EE7D02C9
:1000E9007F021202F2050FE50F7002050E64E64564
:1000F9000E701BE513640A4512700674FFF512F5BC
:10010900130513E51370020512E4F50EF50FD3E597
:10011900139409E51264809480500EE4FD7F071260
:1001290002F2AD137F081202F2E513640A45126068
:10013900030200297D017F071202F2E4FD7F081204
:1001490002F20200291202EE7D037F021202F2E49A
:10015900FD7F071202F27D037F081202F20511E505
:10016900117002051064644510700D050BE50B70E4
:1001790002050AE4F510F511AE0AAF0B7C007D0209
:10018900120263ED4C700E7D0B7F051202F27D0B9E
:100199007F061202F2AE0AAF0B7C007D02120263E7
:1001A900ED64014C0200291202EE7D047F02120265
:1001B900F2E515640A45147004F514F515AD157FBB
:0E01C900071202F2AD157F081202F2020029A1
:10038D00D3EF9400EE94004010007D027CC7DCFE9C
:09039D00DDFCEF1F70EA1E80E791
:0103A6002234
:030000000201D723
:0C01D700787FE4F6D8FD75812802021E36
:10026300C2D5EC30E709B2D5E4C39DFDE49CFCEEB6
:1002730030E715B2D5E4C39FFFE49EFE120299C393
:10028300E49DFDE49CFC800312029930D507C3E48E
:060293009FFFE49EFE2225
:1001E300020003E493A3F8E493A34003F68001F22F
:1001F30008DFF48029E493A3F85407240CC8C3331D
:10020300C4540F4420C8834004F456800146F6DFEB
:10021300E4800B01020408102040809003A7E47ED1
:10022300019360BCA3FF543F30E509541FFEE493E0
:10023300A360010ECF54C025E060A840B8E493A3A7
:10024300FAE493A3F8E493A3C8C582C8CAC583CAD2
:10025300F0A3C8C582C8CAC583CADFE9DEE780BE8A
:0103B8000044
:10029900BC000BBE0029EF8DF084FFADF022E4CC49
:1002A900F875F008EF2FFFEE33FEEC33FCEE9DEC12
:1002B900984005FCEE9DFE0FD5F0E9E4CEFD22ED58
:1002C900F8F5F0EE8420D21CFEADF075F008EF2FA2
:1002D900FFED33FD4007985006D5F0F222C398FD93
:0502E9000FD5F0EA2230
:00000001FF
