:1000FA002028080000000000000000FF101010FF78
:10010A00001F15151D007F007F001F1111111F0010
:0B011A003D000000000000000000009D
:10008F00E4F530F531F532120164E4F530E5302551
:10009F00312408F8E6FDAF301201260530E530C3F4
:1000AF00940840E90532E532D3940A40DDE4F53295
:0E00BF000531E531D3942040D1E4F53180CCF9
:10014A00D3EF9400EE94004010007D027CC7DCFEE1
:09015A00DDFCEF1F70EA1E80E7D6
:010163002279
:0200CD00AD077D
:1000CF00E4FB7E007480A803088006CEA2E713CE5F
:1000DF0013D8F8FFEDF582EF558224FF92B4D2B614
:0A00EF00C2B60BBB08DCD2B5C2B5E7
:0100F90022E4
:10012600AE05AC07AF061200CDAF04A80774800871
:100136008002C313D8FCF4F5807F017E0012014AC9
:040146007580FF229F
:05016400C2B6C2B52285
:03000000020003F8
:0C000300787FE4F6D8FD75813202004AD7
:10000F0002008FE493A3F8E493A34003F68001F278
:10001F0008DFF48029E493A3F85407240CC8C333F2
:10002F00C4540F4420C8834004F456800146F6DFC1
:10003F00E4800B01020408102040809000FAE47E57
:10004F00019360BCA3FF543F30E509541FFEE493B6
:10005F00A360010ECF54C025E060A840B8E493A37D
:10006F00FAE493A3F8E493A3C8C582C8CAC583CAA8
:10007F00F0A3C8C582C8CAC583CADFE9DEE780BE60
:0101250000D9
:00000001FF
