:0907B000312E32332035363700BA
:06000300042500000000CE
:0D07A300120763120780D2AF1206D880FB48
:1006D800C3E52494C8E52394004028E4F523F524D1
:1006E800750BFF750C07750DB0FB7A007931120098
:1006F8006A750B00750C00750D297B007A0079313D
:0407080012036A224C
:03000B0002066189
:10066100C0E0C0F0C083C082C0D075D000C000C05F
:1006710001C002C003C004C005C006C0070524E5CF
:100681002470020523E5282401F528E43527F52700
:10069100E43526F526E43525F525E5285401FFE462
:1006A100FEFDFCFBFAF9F8C312058E700FE522047A
:1006B1005407F5227A007929FD12070CD007D006DC
:1006C100D005D004D003D002D001D000D0D0D08248
:0706D100D083D0F0D0E0322D
:10078000438E805389F0758A20758CD1C28DD28CAE
:03079000D2A922C9
:06036A008B088A09890AD4
:10037000E4F50EF50FE50ED394074003020513AB29
:1003800008AA09A90A850F8275830012052D120596
:100390009F04D30004D32003CB3003DC3103ED32C0
:1003A00003FE33040F34042035043136044237048D
:1003B000533804633904734104934304B34504C3BD
:1003C0004604836204A364000004E4AB0BAA0CA9F6
:1003D0000D850E8275830074C00204E1AB0BAA0C7C
:1003E000A90D850E8275830074F90204E1AB0BAA96
:1003F0000CA90D850E8275830074A40204E1AB0B79
:10040000AA0CA90D850E8275830074B00204E1ABBD
:100410000BAA0CA90D850E8275830074990204E164
:10042000AB0BAA0CA90D850E827583007492020491
:10043000E1AB0BAA0CA90D850E82758300748202B4
:1004400004E1AB0BAA0CA90D850E8275830074F82C
:100450000204E1AB0BAA0CA90D850E827583007412
:1004600080807EAB0BAA0CA90D850E82758300746B
:1004700090806EAB0BAA0CA90D850E82758300745B
:1004800088805EAB0BAA0CA90D850E827583007463
:1004900083804EAB0BAA0CA90D850E827583007468
:1004A000C6803EAB0BAA0CA90D850E827583007425
:1004B000A1802EAB0BAA0CA90D850E82758300744A
:1004C00086801EAB0BAA0CA90D850E827583007465
:1004D00081800EAB0BAA0CA90D850E82758300746A
:1004E000FF12056C850F82758300A3AB08AA09A9CA
:1004F0000A12052DB42E15AB0BE50D250EF9E435CA
:100500000CFA120514547F12055A050F050E050F3B
:030510000203756E
:0105130022C5
:10070C008D8275830012052DF580E5A0541F44E001
:10071C00F5A053A01FAF05A8077401088002C333CE
:10072C00D8FCF580E5A0541F44C0F5A053A01F22AF
:10079300EFF4F580E5A0541F4480F5A053A01F2279
:100763007580FFE5A0541F4480F5A053A01FE4F556
:0D07730080E5A0541F44A0F5A053A01F2254
:030000000205D521
:0C05D500787FE4F6D8FD75813A02061C20
:10051400BB010689828A83E0225002E722BBFE02E5
:09052400E32289828A83E4932218
:10052D00BB010CE58229F582E5833AF583E0225083
:10053D0006E92582F8E622BBFE06E92582F8E222CD
:0D054D00E58229F582E5833AF583E49322E7
:10055A00BB010689828A83F0225002F722BBFE0180
:02056A00F3227A
:10056C00F8BB010DE58229F582E5833AF583E8F0C5
:10057C00225006E92582C8F622BBFE05E92582C871
:02058C00F22259
:10058E00EB9FF5F0EA9E42F0E99D42F0E89C45F0C3
:01059E00223A
:10059F00D083D082F8E4937012740193700DA3A3EB
:1005AF0093F8740193F5828883E4737402936860FF
:0605BF00EFA3A3A380DFFF
:10000E00E517240BF8E60517227808300702780B5F
:10001E00E475F0011205C50205142000EB7F2ED207
:10002E00008018EF540F2490D43440D4FF30040BCA
:10003E00EF24BFB41A0050032461FFE518600215C7
:10004E0018051BE51B7002051A30070D7808E475BC
:10005E00F0011205C5EF02055A02073C7403D207E0
:10006E008003E4C207F5178B088A09890AE4F5189C
:10007E00F51AF51BE51860077F2012004980F5750B
:10008E0019FFC201C200C202C203C205C206C208E3
:10009E00120017FF700D3007057F0012005AAF1BBC
:1000AE00AE1A22B4255FC2D5C204120017FF24D0A7
:1000BE00B40A00501A75F00A781830D50508B6FF44
:1000CE000106C6A426F620D5047002D20380D924D8
:1000DE00CFB41A00EF5004C2E5D20402025AD20184
:1000EE0080C6D20080C0D20280BCD2D580BAD205E2
:1000FE0080B47F201200492002077401B518004019
:10010E00F112000EFF120049020082D208D20680C0
:10011E009512000EFB12000EFA12000EF94A4B70E9
:10012E0006792B7A037BFF20022EE518602A7E00CB
:10013E008E8275830012052D60060EEE651970F025
:10014E00C2D5EBC0E0EAC0E0E9C0E0EE1202A1D0F9
:10015E00E0F9D0E0FAD0E0FB120514FF60AAEBC084
:10016E00E0EAC0E0E9C0E0120049D0E02401F9D095
:10017E00E03400FAD0E0FBE5190460DCD519D98033
:10018E00877BFF7A02799DD202809C79108002795A
:10019E0008C206C2088008D2D5790A8004790AC23C
:1001AE00D5E519047002F519E4FAFDFEFF12000EF2
:1001BE00FC7B0820011312000EFD7B1030000A128A
:1001CE00000EFE12000EFF7B20EC3382D592D5502E
:1001DE0013C3E43000069FFFE49EFEE42001039D5E
:1001EE00FDE49CFCE4CBF8C201EC700CCFCECDCC80
:1001FE00E824F8F870F38017C3EF33FFEE33FEED0B
:10020E0033FDEC33FCEB33FB994002FB0FD8E9EBEB
:10021E00300105F8D0E0C448B201C0E00AEC4D4E02
:10022E004F78207B0070C2EAB5190040BCC0E012C6
:10023E0002A3D0F0D0E0200104C4C0E0C4B201C0DB
:10024E00F0120032D0F0D5F0EB02008212059F01C1
:10025E001F5301995800F04C00EC42019D4F01A52F
:0F026E004401A54901054301AB55018F46018F9E
:10027D0045018F47034B5000F42D00F82E011B2B29
:10028D0000FC2301192003342A00B4480000011397
:10029D003F3F3F00790AA2D5200314300509B9105C
:1002AD00020404B9080104A2D5200602500104205D
:1002BD0002689202B518005034C0E07F2030031957
:1002CD007F30A20272067205500F1202FAC202C2EC
:1002DD0006C205C2087F30800F300503E9C0E01269
:1002ED000049300503D0E0F9D0E0B518CC30051742
:1002FD007F30B9100C1200497F583004077F788089
:10030D0003B908031200493002057F2D0200497F11
:10031D00202008F87F2B2006F322920280CF286E32
:10032D00756C6C2900D20112000E3001F8C20178F3
:10033D001830D50108F60200B42D5043495812006B
:10034D000E2403B405004001E49003469312003AD5
:0D035D00743A12003AD20375180402019997
:1005E1000207A3E493A3F8E493A34003F68001F286
:1005F10008DFF48029E493A3F85407240CC8C3331B
:10060100C4540F4420C8834004F456800146F6DFE9
:10061100E4800B0102040810204080900003E47E76
:10062100019360BCA3FF543F30E509541FFEE493DE
:10063100A360010ECF54C025E060A840B8E493A3A5
:10064100FAE493A3F8E493A3C8C582C8CAC583CAD0
:10065100F0A3C8C582C8CAC583CADFE9DEE780BE88
:0100090000F6
:1005C500FAE6FB0808E6F925F0F618E6CA3AF62237
:10073C00EFB40A07740D120747740A309811A89980
:10074C00B8130CC2983098FDA899C298B811F6301D
:07075C0099FDC299F59922F5
:00000001FF
