:1006910050617373776F72643A0031003200330036
:1006A1003400350036003700380030003733353537
:1006B100363038002020202020202020202020201B
:1006C1002020202000426F6D6220686173206265E6
:1006D100656E00706C616E74656421000045525254
:0A06E100002020202020202020000F
:1008C300080A0000000000000000020800000212F5
:0208D300000023
:100346001208AF7BFF7A0679917D017F01120821A1
:100356001204EC7512008F13E513451260F2D3E513
:1003660013940AE512648094804003020449050947
:10037600E509700205089407E50864809480400347
:1003860002043CE512600302043CE51314B40A00BF
:10039600400302043C9003A975F003A4C58325F02D
:1003A600C583730203C70203D20203DD0203E80218
:1003B60003F30203FE02040902041402041F0204EA
:1003C6002A7517FF75180675199B80617517FF75D5
:1003D600180675199D80567517FF75180675199FAD
:1003E600804B7517FF7518067519A180407517FFA4
:1003F6007518067519A380357517FF7518067519D2
:10040600A5802A7517FF7518067519A7801F751719
:10041600FF7518067519A980147517FF75180675E6
:1004260019A980097517FF7518067519AB7B007A2F
:1004360000790A1206EB7B007A00790A7D017F02B9
:10044600120821E513640B4512706D780A7C00FDD5
:100456007BFF7A0679AD120215EF702F7BFF7A06C5
:1004660079B57D017F011208217BFF7A0679B57D7A
:10047600017F021208217BFF7A0679C67D017F0182
:100486001208217BFF7A0679D48026E4F508F5095F
:10049600780A7C00FD7BFF7A0679DD1202FE7BFF7F
:1004A6007A0679DE7D0D7F011208217BFF7A0679B7
:1004B600E27D017F02120821E513640C45126003F8
:1004C600020356780A7C00FD7BFF7A0679DD12026C
:1004D600FE7BFF7A0679E27D017F02120821E4F5B0
:0604E60008F509020356AF
:10087F00D3EF9400EE94004010007D027CC7DCFEA5
:09088F00DDFCEF1F70EA1E80E79A
:01089800223D
:0608D600C2A58F80D2A72D
:0808DC007F027EEFDEFEDFFC6F
:0108E40022F1
:0A08E500C2A61208D6C2A70208DC62
:10084400CFCDCFCECCCE1200427C007D0A12004226
:04085400ED2430FF60
:0A085800D2A61208D6C2A70208DCDF
:10089900AE07BE0104ED148006BE0209ED243F44F3
:0608A90080FF1208E522A9
:1008AF007F381208E57F0C1208E57F061208E57FF6
:0408BF00010208E545
:0A08EF00AC03120899AF0402085888
:060821008B148A158916F4
:10082700120899E4FDAB14AA15A9168D82758300E9
:0C083700120003FF60061208580D80E953
:010843002292
:0C07EE007F0AEA24FFFDE434FFFC7E00DB
:0807FA008E338F348C358D36EF
:100802007F017E00E4FBEBC39536E5356480F87426
:0E0812008098500AAC33AD341200300B80E8F1
:0108200022B5
:040862008A268B2730
:10086600120899AA28EAD39400400D1207EEAC2686
:08087600AD271208441A80EDC1
:01087E002257
:10074300120899C3EA64809480400B7F2B120858E7
:100753008A228B23800E7F2D120858C3E49BF52336
:10076300E49AF522AA21EAD39400400D1207EEACD5
:0907730022AD231208441A80EDA6
:01077C00225A
:04077D008A2B8B2C0C
:10078100120899AA2DEAD3940040297F101207F08C
:10079100AC2BAD2CCFCDCFCECCCE120042EF540F2F
:1007A100FEC3940AEE5004243080022437FF12085D
:0407B100581A80D181
:0107B5002221
:0407B6008A308B31C9
:1007BA00120899AA32EAD394004028EA24FFFDE4F9
:1007CA0034FFFC7F027E001207FAAC30AD31CFCD88
:1007DA00CFCECCCE120042EF54012430FF1208587B
:0307EA001A80D2A0
:0107ED0022E9
:1004EC00E4F5147590FFC29320970C7F14FE12084C
:1004FC007F3097FD75140120960D7F147E00120835
:10050C007F3096FD75140520950D7F147E00120822
:10051C007F3095FD75140920940D7F147E00120810
:10052C007F3094FD75140D7590FFC29220970D7F4E
:10053C00147E0012087F3097FD75140220960D7FF3
:10054C00147E0012087F3096FD75140620950D7FE1
:10055C00147E0012087F3095FD75140A20940D7FCF
:10056C00147E0012087F3094FD75140E7590FFC236
:10057C009120970D7F147E0012087F3097FD751423
:10058C000320960D7F147E0012087F3096FD7514A3
:10059C000720950D7F147E0012087F3095FD751491
:1005AC000B20940D7F147E0012087F3094FD75147F
:1005BC000F7590FFC29020970D7F147E0012087F5C
:1005CC003097FD75140420960D7F147E0012087F61
:1005DC003096FD75140820950D7F147E0012087F4F
:1005EC003095FD75140C20940D7F147E0012087F3D
:0805FC003094FD751410AF14DA
:0106040022D3
:03000000020605F0
:0C060500787FE4F6D8FD75813602064CC3
:10000300BB010CE58229F582E5833AF583E02250B2
:1000130006E92582F8E622BBFE06E92582F8E222FC
:0D002300E58229F582E5833AF583E4932216
:10003000EF8DF0A4A8F0CF8CF0A428CE8DF0A42EE4
:02004000FE229E
:10004200BC000BBE0029EF8DF084FFADF022E4CCA2
:10005200F875F008EF2FFFEE33FEEC33FCEE9DEC6B
:10006200984005FCEE9DFE0FD5F0E9E4CEFD22EDB1
:10007200F8F5F0EE8420D21CFEADF075F008EF2FFB
:10008200FFED33FD4007985006D5F0F222C398FDEC
:050092000FD5F0EA2289
:1006EB008B148A1589168B1A8A1B891CAB14051659
:1006FB00E516AA157002051514F912031B70ED749B
:10070B00FF2516F51674FF3515F515AB170519E50D
:10071B0019AA187002051814F912031BFFAB140564
:10072B0016E516AA157002051514F9EF12033470AD
:08073B00DAAB1AAA1BA91C226B
:10009700E3F5F009E208B5F06D606B80F3E3F5F086
:1000A70009E608B5F060605E80F387F009E608B5F9
:1000B700F054605280F487F009E208B5F0486046D2
:1000C70080F488828C8387F009E0A3B5F038603626
:1000D70080F488828C8387F009E493A3B5F02760C6
:1000E7002580F388828C83E3F5F009E0A3B5F01649
:1000F700601480F388828C83E3F5F009E493A3B559
:10010700F004600280F20201C2808580E7808E8061
:10011700D2803C8015806C807E809B80B5808B80F0
:10012700A1804F8070803A0201CE89828A83ECFADF
:10013700E493F5F0A3C8C582C8CCC583CCE493A3E8
:10014700C8C582C8CCC583CCB5F070606E80E18924
:10015700828A83E493F5F0A3E208B5F05E605C80E1
:10016700F289828A83E0F5F0A3E608B5F04D604B8B
:1001770080F389828A83E0F5F0A3E208B5F03C605A
:100187003A80F389828A83E493F5F0A3E608B5F011
:100197002A602880F2805389828A83ECFAE493F5F7
:1001A700F0A3C8C582C8CCC583CCE0A3C8C582C8A4
:1001B700CCC583CCB5F004600280E27FFFB5F002C6
:1001C7000F2240027F012289828A83ECFAE0F5F050
:1001D700A3C8C582C8CCC583CCE0A3C8C582C8CC98
:1001E700C583CCB5F0D560D380E389828A83ECFAE6
:1001F700E0F5F0A3C8C582C8CCC583CCE493A3C8F7
:10020700C582C8CCC583CCB5F0B160AF80E288F0B9
:10021700ED2402B4040050A3F582EB2402B40400D9
:0B02270050992323458223900110739F
:10023200E709F60870FA8046E709F20870FA803E8C
:1002420088828C83E709F0A370FA807EE309F608BE
:1002520070FA8076E309F20870FA806E88828C83E5
:10026200E309F0A370FA806289828A83E0A3F60828
:1002720070FA805689828A83E0A3F20870FA804A73
:1002820080D280FA80C680D4806580F2803180106E
:1002920080A680EA809A80A880DA80E280CA8031D3
:1002A20089828A83ECFAE493A3C8C582C8CCC58349
:1002B200CCF0A3C8C582C8CCC583CC70E9800D89B7
:1002C200828A83E493A3F60870F9ECFAA9F0EDFBB5
:1002D2002289828A83ECFAE0A3C8C582C8CCC5838E
:1002E200CCF0A3C8C582C8CCC583CC70EA80DD89B6
:1002F200828A83E493A3F20870F980CE88F0ED2419
:1003020002B4040050C4F582EB2402B4040050BAD3
:090312002323458223900282732B
:10061100020346E493A3F8E493A34003F68001F2B6
:1006210008DFF48029E493A3F85407240CC8C333EA
:10063100C4540F4420C8834004F456800146F6DFB9
:10064100E4800B01020408102040809008C3E47E7E
:10065100019360BCA3FF543F30E509541FFEE493AE
:10066100A360010ECF54C025E060A840B8E493A375
:10067100FAE493A3F8E493A3C8C582C8CAC583CAA0
:10068100F0A3C8C582C8CAC583CADFE9DEE780BE58
:0108D5000022
:10031B00BB010689828A83E0225002E722BBFE02E0
:09032B00E32289828A83E4932213
:10033400BB010689828A83F0225002F722BBFE01A8
:02034400F322A2
:00000001FF
