:07081300012E00022C000081
:1003F700E4F517F518F519F51AF51BF51CF51DF5B4
:100407001EF51F1200031207B812087D1208CE123C
:1004170004F98F1BE51BB4080DE51C70097518015D
:100427001207B8E4F518E51BB40407E51C7003755B
:100437001801E51BB41007E51C7003120782E51BC2
:10044700B40907E51C7003751803E51BB40A09E531
:100457001C70050519531901851B1CE518146062EA
:1004670024FE6076240370A7E519640170487D0BAC
:100477007F08120670E51A700512089A8F1AE51A96
:10048700B40131051FE51F7002051EC394D0E51E98
:1004970064809487500312085C1208E8E51F64D053
:1004A7007004E51E64076003020416F51EF51FF5C8
:1004B7001A02041680001208E8E4FDFF12000E027B
:1004C7000416E4FF12025CE51964016003020416D6
:1004D7007D0B7F081206700204167F0112025CE58D
:1004E70019640160030204167D0B7F08120670026F
:0204F7000416E9
:03000B000207EAFF
:0407EA00C0E0C0D0DB
:1007EE00758A66758CFC052DE52D7002052CC3945B
:1007FE00F4E52C94014009752C00752D00632EFF35
:05080E00D0D0D0E03263
:0E081A0006260C00000C000001240001250041
:05000300C2B5C2B622E7
:0206DD00A9076B
:1006DF00E4FBD2B57E007401A803088005C333CEB6
:1006EF0033CED8F9FFE9F582EF558224FF92B4D2C9
:1006FF00B6C2B60BBB08DDE4FB7E007401A803088D
:10070F008005C333CE33CED8F9FFEDF582EF558296
:10071F0024FF92B4D2B6C2B60BBB08DDC2B5C2B6C7
:01072F0022A7
:02073000AD0713
:10073200E4F9FB430501D2B5D2B57E007401A803EA
:10074200088005C333CE33CED8F9FFEDF582EF55DD
:100752008224FF92B4C2B6D2B60BBB08DBE4FBD252
:10076200B6C2B630B40DA8037401088002C333D8F0
:0F077200FC42010BBB08E8C2B5C2B6C2B4AF016E
:010781002255
:1007B800E4FD7F8E1206DDAF26120901AD077F84A6
:1007C8001206DDAF27120901AD077F821206DDAFE1
:1007D80028120901AD077F801206DD7D817F8E0218
:0207E80006DD2C
:1008E8007F841209278F267F821209278F277F800E
:0808F80012073012092A8F28B3
:0109000022D4
:10090100EF75F00A84C454F0FEEF75F00A84EE2509
:03091100F0FF22D2
:0309270012073084
:0F092A00EFC4540F75F00AA4FEEF540F2EFF22F6
:02025C008F20F1
:10025E00E4F5211204F98F21E521B40104E52560AE
:10026E0009E521B40507E5257003E4F524E521B47D
:10027E000204E5256009E521B40607E5257003753E
:10028E002401E521B40304E5256009E521B407073F
:10029E00E5257003752402E52414607714700302BB
:1002AE00038A240260030203F37D01AF2012000EC5
:1002BE00E5216401702AE5257026E52075F003A47A
:1002CE002426F806E52075F003A42426F8E6D36468
:1002DE00809497400BE52075F003A42426F8E4F6ED
:1002EE00E5216405702AE5257026E52075F003A446
:1002FE002426F816E52075F003A42426F8E6C36438
:10030E008094805075E52075F003A42426F87617A6
:10031E000203F37D02AF2012000EE5216402702A63
:10032E00E5257026E52075F003A42427F806E520C0
:10033E0075F003A42427F8E6D3648094BB400BE544
:10034E002075F003A42427F8E4F6E5216406702A4C
:10035E00E5257026E52075F003A42427F816E52080
:10036E0075F003A42427F8E6C364809480500BE54F
:10037E002075F003A42427F8763B80697D03AF2017
:10038E0012000EE5216403702AE5257026E520751E
:10039E00F003A42428F806E52075F003A42428F819
:1003AE00E6D3648094BB400BE52075F003A42428AB
:1003BE00F8E4F6E5216407702AE5257026E5207538
:1003CE00F003A42428F816E52075F003A42428F8D9
:1003DE00E6C364809480500BE52075F003A42428B6
:0803EE00F8763B800085212513
:0103F60022E4
:10089A00E4FF74292FF8E6FE74262FF8E66E60034B
:0908AA007F00220FBF03EB7F0168
:0108B3002222
:1008B400D3EF9400EE94004010007D027CC7DCFE70
:0908C400DDFCEF1F70EA1E80E765
:0108CD002208
:100828000F083F065B4F666D7D077F6F4080393844
:010838003F80
:10065B00E52275F003A42426F8E6FF75F00A1208CC
:05066B003AADF07F0232
:10067000EF14B40800505490068575F003A4C583A8
:1006800025F0C5837302069D0206A10206A5020697
:10069000A90206AD0206B50206BD0206C5D2A480B7
:1006A0000ED2A48012D2A48016D2A4801AC2A4D2E0
:1006B000A3D2A28016C2A4D2A3C2A2800EC2A4C298
:1006C000A3D2A28006C2A4C2A3C2A274082DF8E6D7
:0D06D000F5807F017E001208B4E4F5802261
:10000E008F228D23E52360030200A2EF75F003A477
:10001E002426F8E6FF75F00A12083AFD7F01120653
:10002E007012065BE52275F003A42427F8E6FF752F
:10003E00F00A12083AFD7F04120670E52275F003ED
:10004E00A42427F8E6FF75F00A12083AADF07F05F2
:10005E00120670E52275F003A42428F8E6FF75F069
:10006E000A12083AFD7F07120670E52275F003A406
:10007E002428F8E6FF75F00A12083AADF07F081250
:10008E000670E52E700E7D0A7F031206707D0A7FC4
:10009E0006120670E52364016003020135E52E7039
:1000AE001AE52275F003A42426F8E6FF75F00A126D
:1000BE00083AFD7F0112067012065BE52275F00309
:1000CE00A42427F8E6FF75F00A12083AFD7F041201
:1000DE000670E52275F003A42427F8E6FF75F00AF2
:1000EE0012083AADF07F05120670E52275F003A4F2
:1000FE002428F8E6FF75F00A12083AFD7F0712066B
:10010E0070E52275F003A42428F8E6FF75F00A12B4
:10011E00083AADF07F081206707D0A7F0312067052
:10012E007D0A7F06120670E523640260030201C891
:10013E00E52275F003A42426F8E6FF75F00A1208EE
:10014E003AFD7F0112067012065BE52E702FE52236
:10015E0075F003A42427F8E6FF75F00A12083AFD9D
:10016E007F04120670E52275F003A42427F8E6FF3B
:10017E0075F00A12083AADF07F05120670E5227589
:10018E00F003A42428F8E6FF75F00A12083AFD7F62
:10019E0007120670E52275F003A42428F8E6FF7511
:1001AE00F00A12083AADF07F081206707D0A7F033E
:1001BE001206707D0A7F06120670E5236403600343
:1001CE0002025BE52275F003A42426F8E6FF75F023
:1001DE000A12083AFD7F0112067012065BE52275BF
:1001EE00F003A42427F8E6FF75F00A12083AFD7F03
:1001FE0004120670E52275F003A42427F8E6FF75B5
:10020E00F00A12083AADF07F05120670E52E702F37
:10021E00E52275F003A42428F8E6FF75F00A12080B
:10022E003AFD7F07120670E52275F003A42428F824
:10023E00E6FF75F00A12083AADF07F081206707DDF
:0E024E000A7F031206707D0A7F0612067022D8
:10085C00E52E701C7D0C7F011206707D0D7F02123F
:10086C0006707D0E7F031206707D0C7F04120670DD
:01087C002259
:10087D0053877F759850538EBF538EFE53890F4308
:0D088D008920758BFD758DFDC2ABD28E22CA
:0B0914003395E0FEEF2430FFE43EFED0
:08091F008F993099FDC2992265
:10078200E4FD74262DF8E6FF75F00A12083AFF120E
:10079200091474262DF8E6FF75F00A12083AAFF034
:1007A200EF120914EDC3940250077F3A7E0012093A
:0507B2001F0DBD03CD89
:0107B700221F
:1008CE00538E7F5389F0438901758A66758CFCC2FD
:0A08DE008DD28CD2A9D2AFC2B9228C
:1004F900E4FF7590FFC2932097087F02FE1208B4AB
:100509007F012096097F027E001208B47F0520959D
:10051900097F027E001208B47F092094097F027EB8
:10052900001208B47F0D7590FFC2922097097F02CF
:100539007E001208B47F022096097F027E0012080D
:10054900B47F062095097F027E001208B47F0A2035
:1005590094097F027E001208B47F0E7590FFC29144
:100569002097097F027E001208B47F032096097F35
:10057900027E001208B47F072095097F027E0012CF
:1005890008B47F0B2094097F027E001208B47F0F04
:100599007590FFC2902097097F027E001208B47FF0
:1005A900042096097F027E001208B47F082095096D
:1005B9007F027E001208B47F0C2094097F027E001E
:0505C9001208B47F10D0
:0105CE00220A
:030000000205CF27
:0C05CF00787FE4F6D8FD75812E02061638
:10083A00C2D530F707B2D563F0FF05F030E70CB246
:10084A00D5F4048463F0FF05F080018430D502F406
:02085A00042276
:1005DB000203F7E493A3F8E493A34003F68001F23C
:1005EB0008DFF48029E493A3F85407240CC8C33321
:1005FB00C4540F4420C8834004F456800146F6DFF0
:10060B00E4800B0102040810204080900813E47E64
:10061B00019360BCA3FF543F30E509541FFEE493E4
:10062B00A360010ECF54C025E060A840B8E493A3AB
:10063B00FAE493A3F8E493A3C8C582C8CAC583CAD6
:10064B00F0A3C8C582C8CAC583CADFE9DEE780BE8E
:0108390000BE
:00000001FF
