:0D011900040A0000000002080000010E00B2
:0D0127001200C01200F6D2AF1200DD80FB06
:1000DD00C3E50994C8E5089400400D630E01AF0E09
:0900ED00120109E4F508F50922ED
:03000B0002009A56
:10009A00C0E0C0D0E50D2401F50DE4350CF50CE403
:1000AA00350BF50BE4350AF50A0509E50970020571
:0600BA0008D0D0D0E032B6
:1000C0007580FFE5A0541F4480F5A053A01FE4F500
:0D00D00080E5A0541F44A0F5A053A01F22FE
:1000F600438E805389F0758A20758CD1C28DD28C3F
:03010600D2A92259
:10010900EFF4F580E5A0541F4480F5A053A01F2209
:0300000002000EED
:0C000E00787FE4F6D8FD75810E020055E5
:10001A00020127E493A3F8E493A34003F68001F2D4
:10002A0008DFF48029E493A3F85407240CC8C333E7
:10003A00C4540F4420C8834004F456800146F6DFB6
:10004A00E4800B0102040810204080900119E47E2C
:10005A00019360BCA3FF543F30E509541FFEE493AB
:10006A00A360010ECF54C025E060A840B8E493A372
:10007A00FAE493A3F8E493A3C8C582C8CAC583CA9D
:10008A00F0A3C8C582C8CAC583CADFE9DEE780BE55
:0101260000D8
:00000001FF
