:03012200010800D1
:05001D001200F980FE55
:030023000200B226
:1000B200C0E0C0F0C083C082C0D075D000C000C014
:1000C20001C002C003C004C005C006C00730980CBE
:1000D2008599A0AF997E0012011AC298D007D00666
:1000E200D005D004D003D002D001D000D0D0D0822D
:0700F200D083D0F0D0E03212
:10000300D3EF9400EE94004010007D027CC7DCFE29
:09001300DDFCEF1F70EA1E80E71E
:01001C0022C1
:1000F90053877F759850538EBF538EFE53890F4394
:100109008920758BFD758DFDC2ABD28ED2AFD2AC75
:0101190022C3
:08011A008F993099FDC2992272
:03000000020026D5
:0C002600787FE4F6D8FD75810802006DBB
:1000320002001DE493A3F8E493A34003F68001F2C7
:1000420008DFF48029E493A3F85407240CC8C333CF
:10005200C4540F4420C8834004F456800146F6DF9E
:10006200E4800B0102040810204080900122E47E0B
:10007200019360BCA3FF543F30E509541FFEE49393
:10008200A360010ECF54C025E060A840B8E493A35A
:10009200FAE493A3F8E493A3C8C582C8CAC583CA85
:1000A200F0A3C8C582C8CAC583CADFE9DEE780BE3D
:0101250000D9
:00000001FF
