:0604780048656C6C6F008A
:03047E0001220058
:100380001204367BFF7A0479787D017F011203A87D
:1003900012023C8F22E52260F7FB7A00750C027D89
:0803A000017F021203E980E86D
:10040600D3EF9400EE94004010007D027CC7DCFE22
:09041600DDFCEF1F70EA1E80E717
:01041F0022BA
:06044A00C2A58F80D2A7BD
:080450007F027EEFDEFEDFFCFF
:010458002281
:0A046400C2A612044AC2A702045007
:1003CB00CFCDCFCECCCE12015B7C007D0A12015B70
:0403DB00ED2430FFDE
:0A03DF00D2A612044AC2A70204507D
:10042000AE07BE0104ED148006BE0209ED243F4470
:0604300080FF12046422AB
:100436007F381204647F0C1204647F061204647F02
:040446000102046447
:0A046E00AC03120420AF040203DF08
:0603A8008B088A09890A96
:1003AE00120420E4FDAB08AA09A90A8D8275830008
:0C03BE0012011CFF60061203DF0D80E935
:0103CA002210
:0C034D007F0AEA24FFFDE434FFFC7E0080
:080359008E0D8F0E8C0F8D102C
:100361007F017E00E4FBEBC39510E50F6480F87418
:0E0371008098500AAC0DAD0E1201490B80E8C9
:01037F00225B
:0403E9008A0A8B0BE6
:1003ED00120420AA0CEAD39400400D12034DAC0A5E
:0803FD00AD0B1203CB1A80EDD9
:0104050022D4
:1002A200120420C3EA64809480400B7F2B1203DF88
:1002B2008A168B17800E7F2D1203DFC3E49BF5177E
:1002C200E49AF516AA15EAD39400400D12034DAC38
:0902D20016AD171203CB1A80EDE2
:0102DB002200
:0402DC008A1A8B1BD4
:1002E000120420AA1CEAD3940040297F1012034F65
:1002F000AC1AAD1BCFCDCFCECCCE12015BEF540FDD
:10030000FEC3940AEE5004243080022437FF120307
:04031000DF1A80D19F
:0103140022C6
:040315008A1F8B2090
:10031900120420AA21EAD394004028EA24FFFDE42C
:1003290034FFFC7F027E00120359AC1FAD20CFCDF4
:10033900CFCECCCE12015BEF54012430FF1203DF84
:030349001A80D245
:01034C00228E
:10023C00E4FF7590FFC2972093010F2092027F027A
:10024C002091027F032090027F047590FFC29620BC
:10025C0093027F052092027F062091027F07209057
:10026C00027F087590FFC2952093027F09209202AD
:10027C007F0A2091027F0B2090027F0C7590FFC2A9
:10028C00942093027F0D2092027F0E2091027F0F0B
:05029C002090027F101C
:0102A100223A
:10000300E4F5237590FFC29320970C7F14FE12042E
:10001300063097FD75230120960D7F147E00120490
:10002300063096FD75230520950D7F147E0012047E
:10003300063095FD75230920940D7F147E0012046C
:10004300063094FD75230D7590FFC29220970D7FA6
:10005300147E001204063097FD75230220960D7F4F
:10006300147E001204063096FD75230620950D7F3D
:10007300147E001204063095FD75230A20940D7F2B
:10008300147E001204063094FD75230E7590FFC292
:100093009120970D7F147E001204063097FD75237F
:1000A3000320960D7F147E001204063096FD7523FF
:1000B3000720950D7F147E001204063095FD7523ED
:1000C3000B20940D7F147E001204063094FD7523DB
:1000D3000F7590FFC29020970D7F147E00120406C7
:1000E3003097FD75230420960D7F147E00120406BD
:1000F3003096FD75230820950D7F147E00120406AB
:100103003095FD75230C20940D7F147E0012040698
:080113003094FD752310AF23A9
:01011B0022C1
:0B045900EF1FAC0670011E4C70F62275
:030000000201B04A
:0C01B000787FE4F6D8FD7581230201F78A
:10011C00BB010CE58229F582E5833AF583E0225098
:10012C0006E92582F8E622BBFE06E92582F8E222E2
:0D013C00E58229F582E5833AF583E49322FC
:10014900EF8DF0A4A8F0CF8CF0A428CE8DF0A42ECA
:02015900FE2284
:10015B00BC000BBE0029EF8DF084FFADF022E4CC88
:10016B00F875F008EF2FFFEE33FEEC33FCEE9DEC51
:10017B00984005FCEE9DFE0FD5F0E9E4CEFD22ED97
:10018B00F8F5F0EE8420D21CFEADF075F008EF2FE1
:10019B00FFED33FD4007985006D5F0F222C398FDD2
:0501AB000FD5F0EA226F
:1001BC00020380E493A3F8E493A34003F68001F2D6
:1001CC0008DFF48029E493A3F85407240CC8C33344
:1001DC00C4540F4420C8834004F456800146F6DF13
:1001EC00E4800B010204081020408090047EE47E21
:1001FC00019360BCA3FF543F30E509541FFEE49308
:10020C00A360010ECF54C025E060A840B8E493A3CE
:10021C00FAE493A3F8E493A3C8C582C8CAC583CAF9
:10022C00F0A3C8C582C8CAC583CADFE9DEE780BEB1
:01048100007A
:00000001FF
