:10000300438E4053890F758B20758DD1C28FD28E4D
:03001300D2AB224B
:0E08A9005389F0438905E4F58AF58CD28C2240
:06037A008B088A09890AC4
:10038000E4F50EF50FE50ED394074003020523AB09
:1003900008AA09A90A850F8275830012053D120675
:1003A0007D04E30004E32003DB3003EC3103FD3282
:1003B000040E33041F34043035044136045237042C
:1003C000633804733904834104A34304C34504D34D
:1003D0004604936204B364000004F4AB0BAA0CA9B6
:1003E0000D850E8275830074C00204F1AB0BAA0C5C
:1003F000A90D850E8275830074F90204F1AB0BAA76
:100400000CA90D850E8275830074A40204F1AB0B58
:10041000AA0CA90D850E8275830074B00204F1AB9D
:100420000BAA0CA90D850E8275830074990204F144
:10043000AB0BAA0CA90D850E827583007492020481
:10044000F1AB0BAA0CA90D850E8275830074820294
:1004500004F1AB0BAA0CA90D850E8275830074F80C
:100460000204F1AB0BAA0CA90D850E8275830074F2
:1004700080807EAB0BAA0CA90D850E82758300745B
:1004800090806EAB0BAA0CA90D850E82758300744B
:1004900088805EAB0BAA0CA90D850E827583007453
:1004A00083804EAB0BAA0CA90D850E827583007458
:1004B000C6803EAB0BAA0CA90D850E827583007415
:1004C000A1802EAB0BAA0CA90D850E82758300743A
:1004D00086801EAB0BAA0CA90D850E827583007455
:1004E00081800EAB0BAA0CA90D850E82758300745A
:1004F000FF12057C850F82758300A3AB08AA09A9AA
:100500000A12053DB42E15AB0BE50D250EF9E435A9
:100510000CFA120524547F12056A050F050E050F0B
:030520000203854E
:0105230022B5
:100825008D8275830012053DF580E5A0541F44E0D7
:10083500F5A053A01FAF05A8077401088002C333B4
:10084500D8FCF580E5A0541F44C0F5A053A01F2295
:10087C007580FFE5A0541F4480F5A053A01FE4F53C
:0D088C0080E5A0541F44A0F5A053A01F223A
:040016002535750017
:0A08B70004270000000002250000E5
:1008990012087C1208A9120003D2AF1207EB80FBE1
:1007EB00C3E52494C8E5239400402EE4F523F524B7
:1007FB00750BFF750C00750D1685250E85260FFBE9
:10080B007A00793312007A750B00750C00750D2B7D
:0A081B007B007A00793312037A2281
:03001B000206B327
:1006B300C0E0C0F0C083C082C0D075D000C000C00D
:1006C30001C002C003C004C005C006C0070524E57D
:1006D3002470020523E52A2401F52AE43529F529A6
:1006E300E43528F528E43527F527E52A5401FFE406
:1006F300FEFDFCFBFAF9F8C312066C700FE5220449
:100703005407F5227A00792BFD120825E47BE87A59
:1007130003F9F8AF2AAE29AD28AC271205DAAC00ED
:10072300AD01AE02AF03E4FBFAF9F8C312066C7035
:1007330010AF8CEFAD8AF525EDF526758A00758C23
:1007430000D007D006D005D004D003D002D001D00A
:0C07530000D0D0D082D083D0F0D0E032B3
:0300000002075F95
:0C075F00787FE4F6D8FD75813C0207A607
:10052400BB010689828A83E0225002E722BBFE02D5
:09053400E32289828A83E4932208
:10053D00BB010CE58229F582E5833AF583E0225073
:10054D0006E92582F8E622BBFE06E92582F8E222BD
:0D055D00E58229F582E5833AF583E49322D7
:10056A00BB010689828A83F0225002F722BBFE0170
:02057A00F3226A
:10057C00F8BB010DE58229F582E5833AF583E8F0B5
:10058C00225006E92582C8F622BBFE05E92582C861
:02059C00F22249
:10059E0075F008758200EF2FFFEE33FECD33CDCC14
:1005AE0033CCC58233C5829BED9AEC99E582984097
:1005BE000CF582EE9BFEED9AFDEC99FC0FD5F0D674
:1005CE00E4CEFBE4CDFAE4CCF9A88222B800C1B99E
:1005DE000059BA002DEC8BF084CFCECDFCE5F0CBDC
:1005EE00F97818EF2FFFEE33FEED33FDEC33FCEB15
:1005FE0033FB10D703994004EB99FB0FD8E5E4F9D0
:10060E00FA227818EF2FFFEE33FEED33FDEC33FCBC
:10061E00C933C910D7059BE99A4007EC9BFCE99AB0
:10062E00F90FD8E0E4C9FAE4CCFB2275F010EF2FF5
:10063E00FFEE33FEED33FDCC33CCC833C810D707F5
:10064E009BEC9AE899400AED9BFDEC9AFCE899F830
:0E065E000FD5F0DAE4CDFBE4CCFAE4C8F922C3
:10066C00EB9FF5F0EA9E42F0E99D42F0E89C45F0E4
:01067C00225B
:10067D00D083D082F8E4937012740193700DA3A30C
:10068D0093F8740193F5828883E473740293686020
:06069D00EFA3A3A380DF20
:10001E00E517240BF8E60517227808300702780B4F
:10002E00E475F0011206A30205242000EB7F2ED208
:10003E00008018EF540F2490D43440D4FF30040BBA
:10004E00EF24BFB41A0050032461FFE518600215B7
:10005E0018051BE51B7002051A30070D7808E475AC
:10006E00F0011206A3EF02056A0208557403D207C7
:10007E008003E4C207F5178B088A09890AE4F5188C
:10008E00F51AF51BE51860077F2012005980F575EB
:10009E0019FFC201C200C202C203C205C206C208D3
:1000AE00120027FF700D3007057F0012006AAF1B8C
:1000BE00AE1A22B4255FC2D5C204120027FF24D087
:1000CE00B40A00501A75F00A781830D50508B6FF34
:1000DE000106C6A426F620D5047002D20380D924C8
:1000EE00CFB41A00EF5004C2E5D20402026AD20164
:1000FE0080C6D20080C0D20280BCD2D580BAD205D2
:10010E0080B47F201200592002077401B5180040F8
:10011E00F112001EFF120059020092D208D2068080
:10012E009512001EFB12001EFA12001EF94A4B70A9
:10013E0006793B7A037BFF20022EE518602A7E00AB
:10014E008E8275830012053D60060EEE651970F005
:10015E00C2D5EBC0E0EAC0E0E9C0E0EE1202B1D0D9
:10016E00E0F9D0E0FAD0E0FB120524FF60AAEBC064
:10017E00E0EAC0E0E9C0E0120059D0E02401F9D075
:10018E00E03400FAD0E0FBE5190460DCD519D98023
:10019E00877BFF7A0279ADD202809C79108002793A
:1001AE0008C206C2088008D2D5790A8004790AC22C
:1001BE00D5E519047002F519E4FAFDFEFF12001ED2
:1001CE00FC7B0820011312001EFD7B1030000A126A
:1001DE00001EFE12001EFF7B20EC3382D592D550FE
:1001EE0013C3E43000069FFFE49EFEE42001039D4E
:1001FE00FDE49CFCE4CBF8C201EC700CCFCECDCC70
:10020E00E824F8F870F38017C3EF33FFEE33FEEDFA
:10021E0033FDEC33FCEB33FB994002FB0FD8E9EBDB
:10022E00300105F8D0E0C448B201C0E00AEC4D4EF2
:10023E004F78207B0070C2EAB5190040BCC0E012B6
:10024E0002B3D0F0D0E0200104C4C0E0C4B201C0BB
:10025E00F0120042D0F0D5F0EB02009212067D01B2
:10026E002F5301A95801004C00FC4201AD4F01B5BE
:0F027E004401B54901154301BB55019F46019F3E
:10028D0045019F47035B5001042D01082E012B2BC7
:10029D00010C2301292003442A00C4480000012336
:1002AD003F3F3F00790AA2D5200314300509B9104C
:1002BD00020404B9080104A2D5200602500104204D
:1002CD0002689202B518005034C0E07F2030031947
:1002DD007F30A20272067205500F12030AC202C2CB
:1002ED0006C205C2087F30800F300503E9C0E01259
:1002FD000059300503D0E0F9D0E0B518CC30051722
:10030D007F30B9100C1200597F583004077F788068
:10031D0003B908031200593002057F2D0200597FE1
:10032D00202008F87F2B2006F322920280CF286E22
:10033D00756C6C2900D20112001E3001F8C20178D3
:10034D001830D50108F60200C42D5043495812004B
:10035D001E2403B405004001E49003569312004A95
:0D036D00743A12004AD2037518040201A967
:10076B00020899E493A3F8E493A34003F68001F203
:10077B0008DFF48029E493A3F85407240CC8C3338F
:10078B00C4540F4420C8834004F456800146F6DF5E
:10079B00E4800B01020408102040809008B7E47E2F
:1007AB00019360BCA3FF543F30E509541FFEE49353
:1007BB00A360010ECF54C025E060A840B8E493A31A
:1007CB00FAE493A3F8E493A3C8C582C8CAC583CA45
:1007DB00F0A3C8C582C8CAC583CADFE9DEE780BEFD
:0108C1000036
:1006A300FAE6FB0808E6F925F0F618E6CA3AF62258
:10085500EFB40A07740D120860740A309811A8994C
:10086500B8130CC2983098FDA899C298B811F63003
:0708750099FDC299F59922DB
:00000001FF
