:1002780002160000011A00011B00011E00011D00EA
:0F028800011800011400011900011C00011500EC
:1000FC001202478F1BE51B6031B40107E51E70032C
:10010C00751A01E51BB40207E51E7003751A02E5AA
:10011C001BB40307E51E7003751A03E51BB4040A30
:10012C00E51E7006751A04751D01851B1EE51A2443
:10013C00FE600F146011146013240370B31202A636
:10014C0080AE12015D80A91201B980A41202068052
:01015C009F03
:10024700E4F51F30B10930B00630B20320B31F7F89
:10025700057E001202D020B103751F0120B003757F
:100267001F0220B203751F0320B303751F04AF1FBE
:010277002264
:1002A600E5176401451660067516007517017D0A87
:1002B6007F0112008F7D017F0212008FE4FD7F0710
:0A02C60012008F7D017F0802008FF7
:10015D00E517640245166009751600751702E4F57A
:10016D00147D0A7F0112008F7D027F0212008F0520
:10017D0018E518B4E60DE514B40A037514FF05145B
:10018D00E4F518E514D39409500EE4FD7F07120031
:10019D008FAD147F0812008FE514B40A0E7D017F18
:0C01AD000712008FE4FD7F0812008F2273
:1001B900E517640345166009751600751703E4F51C
:1001C900197D0A7F0112008F7D037F0212008FE4DF
:1001D900FD7F0712008F7D037F0812008F0519E547
:1001E90019B46405051CE4F519E51C20E00E7D0B26
:0D01F9007F0512008F7D0B7F0612008F2204
:10020600E51764044516600B751600751704E4F5CA
:1002160015F51DE51DB401050515E4F51D7D0A7FDF
:100226000112008F7D047F0212008FE515B40A03C8
:10023600E4F515AD157F0712008FAD157F08020096
:010246008F28
:0E0297000C083F065B4F666D7D077F6F3E4093
:10008F00EF14B4080050549000A475F003A4C58376
:10009F0025F0C583730200BC0200C00200C4020039
:1000AF00C80200CC0200D40200DC0200E4D2A4801B
:1000BF000ED2A48012D2A48016D2A4801AC2A4D2C7
:1000CF00A3D2A28016C2A4D2A3C2A2800EC2A4C27F
:1000DF00A3D2A28006C2A4C2A3C2A274082DF8E6BE
:0D00EF00F5807F017E001202D0E4F5802232
:1002D000D3EF9400EE94004010007D027CC7DCFE5A
:0902E000DDFCEF1F70EA1E80E74F
:0102E90022F2
:03000000020003F8
:0C000300787FE4F6D8FD75811F02004AEA
:10000F000200FCE493A3F8E493A34003F68001F20B
:10001F0008DFF48029E493A3F85407240CC8C333F2
:10002F00C4540F4420C8834004F456800146F6DFC1
:10003F00E4800B0102040810204080900278E47ED7
:10004F00019360BCA3FF543F30E509541FFEE493B6
:10005F00A360010ECF54C025E060A840B8E493A37D
:10006F00FAE493A3F8E493A3C8C582C8CAC583CAA8
:10007F00F0A3C8C582C8CAC583CADFE9DEE780BE60
:0102A5000058
:00000001FF
