:0A018400010A00010B000208000050
:1001320075A0FE1201501200EE8F0AE50A60F7B4B4
:0E01420001F4050BE50BB402EDE4F50B80E8CB
:03000B0002009A56
:0B009A00C0E0C0D075D000C000C0075F
:1000A500758A66758CFC0509E50970020508C39417
:1000B500F4E50894014029750800750900E50B7001
:1000C5000DAFA07801EF08800123D8FDF5A0E50B61
:1000D500B4010DAFA07801EF08800103D8FDF5A0AC
:0900E500D007D000D0D0D0E032E9
:10015000538E7F5389F0438901758A66758CFCC282
:0A0160008DD28CD2A9D2AFC2B92211
:1000EE00E4F50C30B10930B00630B20320B3327FE4
:1000FE00057E0012016A20B103750C0120B0037554
:10010E000C0220B203750C0320B303750C0430B13E
:10011E00FD30B0FA30B2F730B3F47F057E00120135
:03012E006AAF0CA9
:0101310022AB
:10016A00D3EF9400EE94004010007D027CC7DCFEC1
:09017A00DDFCEF1F70EA1E80E7B6
:010183002259
:0300000002000EED
:0C000E00787FE4F6D8FD75810C020055E7
:10001A00020132E493A3F8E493A34003F68001F2C9
:10002A0008DFF48029E493A3F85407240CC8C333E7
:10003A00C4540F4420C8834004F456800146F6DFB6
:10004A00E4800B0102040810204080900184E47EC1
:10005A00019360BCA3FF543F30E509541FFEE493AB
:10006A00A360010ECF54C025E060A840B8E493A372
:10007A00FAE493A3F8E493A3C8C582C8CAC583CA9D
:10008A00F0A3C8C582C8CAC583CADFE9DEE780BE55
:01018E000070
:00000001FF
