:09039900436C6F636B3A003A00FB
:0D037700011A00011B00011C00021800000B
:10012E001203241203547BFF7A0379997D017F0118
:10013E001202ACE51CFB7A00750C027D017F0212E7
:10014E0002ED7BFF7A0379A07D037F021202ACE5FC
:10015E001BFB7A00750C027D047F021202ED7BFF01
:10016E007A0379A07D067F021202ACE51AFB7A00B3
:0C017E00750C027D077F021202ED80B7B5
:03000B0002018A65
:04018A00C0E0C0D041
:10018E00758A66758CFC0519E51970020518C394FD
:10019E00E8E51894034024751800751900051AE552
:1001AE001AB43C17751A00051BE51BB43C0D751BE4
:0B01BE0000051CE51CB41803751C00B4
:0501C900D0D0D0E032AF
:10030A00D3EF9400EE94004010007D027CC7DCFE1F
:09031A00DDFCEF1F70EA1E80E714
:0103230022B7
:06036800C2A58F80D2A7A0
:08036E007F027EEFDEFEDFFCE2
:010376002264
:0A038500C2A6120368C2A702036EAD
:1002CF00CFCDCFCECCCE12004D7C007D0A12004D8B
:0402DF00ED2430FFDB
:0A02E300D2A6120368C2A702036E40
:10033E00AE07BE0104ED148006BE0209ED243F4453
:06034E0080FF120385226E
:100354007F381203857F0C1203857F061203857F85
:04036400010203850A
:0A038F00AC0312033EAF040202E3C8
:0602AC008B088A09890A93
:1002B20012033EE4FDAB08AA09A90A8D82758300E8
:0C02C20012000EFF60061202E30D80E93E
:0102CE00220D
:0C0279007F0AEA24FFFDE434FFFC7E0055
:080285008E0D8F0E8C0F8D1001
:10028D007F017E00E4FBEBC39510E50F6480F874ED
:0E029D008098500AAC0DAD0E12003B0B80E8AD
:0102AB002230
:0402ED008A0A8B0BE3
:1002F10012033EAA0CEAD39400400D120279AC0A13
:08030100AD0B1202CF1A80EDD2
:0103090022D1
:1001CE0012033EC3EA64809480400B7F2B1202E33D
:1001DE008A168B17800E7F2D1202E3C3E49BF51750
:1001EE00E49AF516AA15EAD39400400D120279ACE2
:0901FE0016AD171202CF1A80EDB4
:0102070022D4
:040208008A1F8B209E
:10020C0012033EAA21EAD3940040297F1012027BEC
:10021C00AC1FAD20CFCDCFCECCCE12004DEF540FB6
:10022C00FEC3940AEE5004243080022437FF1202DD
:04023C00E31A80D170
:01024000229B
:040241008A248B255B
:1002450012033EAA26EAD394004028EA24FFFDE4DF
:1002550034FFFC7F027E00120285AC24AD25CFCD94
:10026500CFCECCCE12004DEF54012430FF1202E365
:030275001A80D21A
:010278002263
:10032400538E7F5389F0438901758A66758CFCC2AC
:0A0334008DD28CD2A9D2AFC2B9223B
:030000000200A259
:0C00A200787FE4F6D8FD7581260200E9A5
:10000E00BB010CE58229F582E5833AF583E02250A7
:10001E0006E92582F8E622BBFE06E92582F8E222F1
:0D002E00E58229F582E5833AF583E493220B
:10003B00EF8DF0A4A8F0CF8CF0A428CE8DF0A42ED9
:02004B00FE2293
:10004D00BC000BBE0029EF8DF084FFADF022E4CC97
:10005D00F875F008EF2FFFEE33FEEC33FCEE9DEC60
:10006D00984005FCEE9DFE0FD5F0E9E4CEFD22EDA6
:10007D00F8F5F0EE8420D21CFEADF075F008EF2FF0
:10008D00FFED33FD4007985006D5F0F222C398FDE1
:05009D000FD5F0EA227E
:1000AE0002012EE493A3F8E493A34003F68001F239
:1000BE0008DFF48029E493A3F85407240CC8C33353
:1000CE00C4540F4420C8834004F456800146F6DF22
:1000DE00E4800B0102040810204080900377E47E38
:1000EE00019360BCA3FF543F30E509541FFEE49317
:1000FE00A360010ECF54C025E060A840B8E493A3DE
:10010E00FAE493A3F8E493A3C8C582C8CAC583CA08
:10011E00F0A3C8C582C8CAC583CADFE9DEE780BEC0
:010384000078
:00000001FF
